{"contracts/Libraries/LibCalculations.sol":{"LibCalculations":{"abi":[{"inputs":[{"internalType":"uint256","name":"self","type":"uint256"},{"internalType":"uint16","name":"percentage","type":"uint16"}],"name":"percent","outputs":[{"internalType":"uint256","name":"","type":"uint256"}],"stateMutability":"pure","type":"function"}],"evm":{"bytecode":{"linkReferences":{},"object":"61044c610053600b82828239805160001a607314610046577f4e487b7100000000000000000000000000000000000000000000000000000000600052600060045260246000fd5b30600052607381538281f3fe73000000000000000000000000000000000000000030146080604052600436106100355760003560e01c80633fb340031461003a575b600080fd5b610054600480360381019061004f9190610145565b61006a565b6040516100619190610194565b60405180910390f35b600061007c838361ffff166002610084565b905092915050565b600061008f826100ae565b838561009b91906101de565b6100a59190610267565b90509392505050565b600081600a6100bd91906103cb565b60646100c991906101de565b9050919050565b600080fd5b6000819050919050565b6100e8816100d5565b81146100f357600080fd5b50565b600081359050610105816100df565b92915050565b600061ffff82169050919050565b6101228161010b565b811461012d57600080fd5b50565b60008135905061013f81610119565b92915050565b6000806040838503121561015c5761015b6100d0565b5b600061016a858286016100f6565b925050602061017b85828601610130565b9150509250929050565b61018e816100d5565b82525050565b60006020820190506101a96000830184610185565b92915050565b7f4e487b7100000000000000000000000000000000000000000000000000000000600052601160045260246000fd5b60006101e9826100d5565b91506101f4836100d5565b9250817fffffffffffffffffffffffffffffffffffffffffffffffffffffffffffffffff048311821515161561022d5761022c6101af565b5b828202905092915050565b7f4e487b7100000000000000000000000000000000000000000000000000000000600052601260045260246000fd5b6000610272826100d5565b915061027d836100d5565b92508261028d5761028c610238565b5b828204905092915050565b60008160011c9050919050565b6000808291508390505b60018511156102ef578086048111156102cb576102ca6101af565b5b60018516156102da5780820291505b80810290506102e885610298565b94506102af565b94509492505050565b60008261030857600190506103c4565b8161031657600090506103c4565b816001811461032c576002811461033657610365565b60019150506103c4565b60ff841115610348576103476101af565b5b8360020a91508482111561035f5761035e6101af565b5b506103c4565b5060208310610133831016604e8410600b841016171561039a5782820a905083811115610395576103946101af565b5b6103c4565b6103a784848460016102a5565b925090508184048111156103be576103bd6101af565b5b81810290505b9392505050565b60006103d6826100d5565b91506103e1836100d5565b925061040e7fffffffffffffffffffffffffffffffffffffffffffffffffffffffffffffffff84846102f8565b90509291505056fea2646970667358221220807dfb6d5cede898ebb083cea90565b7dcd6e23c955ac4353630d7e086124cf564736f6c63430008090033","opcodes":"PUSH2 0x44C PUSH2 0x53 PUSH1 0xB DUP3 DUP3 DUP3 CODECOPY DUP1 MLOAD PUSH1 0x0 BYTE PUSH1 0x73 EQ PUSH2 0x46 JUMPI PUSH32 0x4E487B7100000000000000000000000000000000000000000000000000000000 PUSH1 0x0 MSTORE PUSH1 0x0 PUSH1 0x4 MSTORE PUSH1 0x24 PUSH1 0x0 REVERT JUMPDEST ADDRESS PUSH1 0x0 MSTORE PUSH1 0x73 DUP2 MSTORE8 DUP3 DUP2 RETURN INVALID PUSH20 0x0 ADDRESS EQ PUSH1 0x80 PUSH1 0x40 MSTORE PUSH1 0x4 CALLDATASIZE LT PUSH2 0x35 JUMPI PUSH1 0x0 CALLDATALOAD PUSH1 0xE0 SHR DUP1 PUSH4 0x3FB34003 EQ PUSH2 0x3A JUMPI JUMPDEST PUSH1 0x0 DUP1 REVERT JUMPDEST PUSH2 0x54 PUSH1 0x4 DUP1 CALLDATASIZE SUB DUP2 ADD SWAP1 PUSH2 0x4F SWAP2 SWAP1 PUSH2 0x145 JUMP JUMPDEST PUSH2 0x6A JUMP JUMPDEST PUSH1 0x40 MLOAD PUSH2 0x61 SWAP2 SWAP1 PUSH2 0x194 JUMP JUMPDEST PUSH1 0x40 MLOAD DUP1 SWAP2 SUB SWAP1 RETURN JUMPDEST PUSH1 0x0 PUSH2 0x7C DUP4 DUP4 PUSH2 0xFFFF AND PUSH1 0x2 PUSH2 0x84 JUMP JUMPDEST SWAP1 POP SWAP3 SWAP2 POP POP JUMP JUMPDEST PUSH1 0x0 PUSH2 0x8F DUP3 PUSH2 0xAE JUMP JUMPDEST DUP4 DUP6 PUSH2 0x9B SWAP2 SWAP1 PUSH2 0x1DE JUMP JUMPDEST PUSH2 0xA5 SWAP2 SWAP1 PUSH2 0x267 JUMP JUMPDEST SWAP1 POP SWAP4 SWAP3 POP POP POP JUMP JUMPDEST PUSH1 0x0 DUP2 PUSH1 0xA PUSH2 0xBD SWAP2 SWAP1 PUSH2 0x3CB JUMP JUMPDEST PUSH1 0x64 PUSH2 0xC9 SWAP2 SWAP1 PUSH2 0x1DE JUMP JUMPDEST SWAP1 POP SWAP2 SWAP1 POP JUMP JUMPDEST PUSH1 0x0 DUP1 REVERT JUMPDEST PUSH1 0x0 DUP2 SWAP1 POP SWAP2 SWAP1 POP JUMP JUMPDEST PUSH2 0xE8 DUP2 PUSH2 0xD5 JUMP JUMPDEST DUP2 EQ PUSH2 0xF3 JUMPI PUSH1 0x0 DUP1 REVERT JUMPDEST POP JUMP JUMPDEST PUSH1 0x0 DUP2 CALLDATALOAD SWAP1 POP PUSH2 0x105 DUP2 PUSH2 0xDF JUMP JUMPDEST SWAP3 SWAP2 POP POP JUMP JUMPDEST PUSH1 0x0 PUSH2 0xFFFF DUP3 AND SWAP1 POP SWAP2 SWAP1 POP JUMP JUMPDEST PUSH2 0x122 DUP2 PUSH2 0x10B JUMP JUMPDEST DUP2 EQ PUSH2 0x12D JUMPI PUSH1 0x0 DUP1 REVERT JUMPDEST POP JUMP JUMPDEST PUSH1 0x0 DUP2 CALLDATALOAD SWAP1 POP PUSH2 0x13F DUP2 PUSH2 0x119 JUMP JUMPDEST SWAP3 SWAP2 POP POP JUMP JUMPDEST PUSH1 0x0 DUP1 PUSH1 0x40 DUP4 DUP6 SUB SLT ISZERO PUSH2 0x15C JUMPI PUSH2 0x15B PUSH2 0xD0 JUMP JUMPDEST JUMPDEST PUSH1 0x0 PUSH2 0x16A DUP6 DUP3 DUP7 ADD PUSH2 0xF6 JUMP JUMPDEST SWAP3 POP POP PUSH1 0x20 PUSH2 0x17B DUP6 DUP3 DUP7 ADD PUSH2 0x130 JUMP JUMPDEST SWAP2 POP POP SWAP3 POP SWAP3 SWAP1 POP JUMP JUMPDEST PUSH2 0x18E DUP2 PUSH2 0xD5 JUMP JUMPDEST DUP3 MSTORE POP POP JUMP JUMPDEST PUSH1 0x0 PUSH1 0x20 DUP3 ADD SWAP1 POP PUSH2 0x1A9 PUSH1 0x0 DUP4 ADD DUP5 PUSH2 0x185 JUMP JUMPDEST SWAP3 SWAP2 POP POP JUMP JUMPDEST PUSH32 0x4E487B7100000000000000000000000000000000000000000000000000000000 PUSH1 0x0 MSTORE PUSH1 0x11 PUSH1 0x4 MSTORE PUSH1 0x24 PUSH1 0x0 REVERT JUMPDEST PUSH1 0x0 PUSH2 0x1E9 DUP3 PUSH2 0xD5 JUMP JUMPDEST SWAP2 POP PUSH2 0x1F4 DUP4 PUSH2 0xD5 JUMP JUMPDEST SWAP3 POP DUP2 PUSH32 0xFFFFFFFFFFFFFFFFFFFFFFFFFFFFFFFFFFFFFFFFFFFFFFFFFFFFFFFFFFFFFFFF DIV DUP4 GT DUP3 ISZERO ISZERO AND ISZERO PUSH2 0x22D JUMPI PUSH2 0x22C PUSH2 0x1AF JUMP JUMPDEST JUMPDEST DUP3 DUP3 MUL SWAP1 POP SWAP3 SWAP2 POP POP JUMP JUMPDEST PUSH32 0x4E487B7100000000000000000000000000000000000000000000000000000000 PUSH1 0x0 MSTORE PUSH1 0x12 PUSH1 0x4 MSTORE PUSH1 0x24 PUSH1 0x0 REVERT JUMPDEST PUSH1 0x0 PUSH2 0x272 DUP3 PUSH2 0xD5 JUMP JUMPDEST SWAP2 POP PUSH2 0x27D DUP4 PUSH2 0xD5 JUMP JUMPDEST SWAP3 POP DUP3 PUSH2 0x28D JUMPI PUSH2 0x28C PUSH2 0x238 JUMP JUMPDEST JUMPDEST DUP3 DUP3 DIV SWAP1 POP SWAP3 SWAP2 POP POP JUMP JUMPDEST PUSH1 0x0 DUP2 PUSH1 0x1 SHR SWAP1 POP SWAP2 SWAP1 POP JUMP JUMPDEST PUSH1 0x0 DUP1 DUP3 SWAP2 POP DUP4 SWAP1 POP JUMPDEST PUSH1 0x1 DUP6 GT ISZERO PUSH2 0x2EF JUMPI DUP1 DUP7 DIV DUP2 GT ISZERO PUSH2 0x2CB JUMPI PUSH2 0x2CA PUSH2 0x1AF JUMP JUMPDEST JUMPDEST PUSH1 0x1 DUP6 AND ISZERO PUSH2 0x2DA JUMPI DUP1 DUP3 MUL SWAP2 POP JUMPDEST DUP1 DUP2 MUL SWAP1 POP PUSH2 0x2E8 DUP6 PUSH2 0x298 JUMP JUMPDEST SWAP5 POP PUSH2 0x2AF JUMP JUMPDEST SWAP5 POP SWAP5 SWAP3 POP POP POP JUMP JUMPDEST PUSH1 0x0 DUP3 PUSH2 0x308 JUMPI PUSH1 0x1 SWAP1 POP PUSH2 0x3C4 JUMP JUMPDEST DUP2 PUSH2 0x316 JUMPI PUSH1 0x0 SWAP1 POP PUSH2 0x3C4 JUMP JUMPDEST DUP2 PUSH1 0x1 DUP2 EQ PUSH2 0x32C JUMPI PUSH1 0x2 DUP2 EQ PUSH2 0x336 JUMPI PUSH2 0x365 JUMP JUMPDEST PUSH1 0x1 SWAP2 POP POP PUSH2 0x3C4 JUMP JUMPDEST PUSH1 0xFF DUP5 GT ISZERO PUSH2 0x348 JUMPI PUSH2 0x347 PUSH2 0x1AF JUMP JUMPDEST JUMPDEST DUP4 PUSH1 0x2 EXP SWAP2 POP DUP5 DUP3 GT ISZERO PUSH2 0x35F JUMPI PUSH2 0x35E PUSH2 0x1AF JUMP JUMPDEST JUMPDEST POP PUSH2 0x3C4 JUMP JUMPDEST POP PUSH1 0x20 DUP4 LT PUSH2 0x133 DUP4 LT AND PUSH1 0x4E DUP5 LT PUSH1 0xB DUP5 LT AND OR ISZERO PUSH2 0x39A JUMPI DUP3 DUP3 EXP SWAP1 POP DUP4 DUP2 GT ISZERO PUSH2 0x395 JUMPI PUSH2 0x394 PUSH2 0x1AF JUMP JUMPDEST JUMPDEST PUSH2 0x3C4 JUMP JUMPDEST PUSH2 0x3A7 DUP5 DUP5 DUP5 PUSH1 0x1 PUSH2 0x2A5 JUMP JUMPDEST SWAP3 POP SWAP1 POP DUP2 DUP5 DIV DUP2 GT ISZERO PUSH2 0x3BE JUMPI PUSH2 0x3BD PUSH2 0x1AF JUMP JUMPDEST JUMPDEST DUP2 DUP2 MUL SWAP1 POP JUMPDEST SWAP4 SWAP3 POP POP POP JUMP JUMPDEST PUSH1 0x0 PUSH2 0x3D6 DUP3 PUSH2 0xD5 JUMP JUMPDEST SWAP2 POP PUSH2 0x3E1 DUP4 PUSH2 0xD5 JUMP JUMPDEST SWAP3 POP PUSH2 0x40E PUSH32 0xFFFFFFFFFFFFFFFFFFFFFFFFFFFFFFFFFFFFFFFFFFFFFFFFFFFFFFFFFFFFFFFF DUP5 DUP5 PUSH2 0x2F8 JUMP JUMPDEST SWAP1 POP SWAP3 SWAP2 POP POP JUMP INVALID LOG2 PUSH5 0x6970667358 0x22 SLT KECCAK256 DUP1 PUSH30 0xFB6D5CEDE898EBB083CEA90565B7DCD6E23C955AC4353630D7E086124CF5 PUSH5 0x736F6C6343 STOP ADDMOD MULMOD STOP CALLER "},"methodIdentifiers":{"percent(uint256,uint16)":"3fb34003"}}}}}