{
  "_format": "hh-sol-artifact-1",
  "contractName": "chainLinkWeatherData",
  "sourceName": "contracts/chainLinkWeatherData.sol",
  "abi": [
    {
      "inputs": [],
      "stateMutability": "nonpayable",
      "type": "constructor"
    },
    {
      "anonymous": false,
      "inputs": [
        {
          "indexed": true,
          "internalType": "bytes32",
          "name": "id",
          "type": "bytes32"
        }
      ],
      "name": "ChainlinkCancelled",
      "type": "event"
    },
    {
      "anonymous": false,
      "inputs": [
        {
          "indexed": true,
          "internalType": "bytes32",
          "name": "id",
          "type": "bytes32"
        }
      ],
      "name": "ChainlinkFulfilled",
      "type": "event"
    },
    {
      "anonymous": false,
      "inputs": [
        {
          "indexed": true,
          "internalType": "bytes32",
          "name": "id",
          "type": "bytes32"
        }
      ],
      "name": "ChainlinkRequested",
      "type": "event"
    },
    {
      "anonymous": false,
      "inputs": [
        {
          "indexed": true,
          "internalType": "address",
          "name": "from",
          "type": "address"
        },
        {
          "indexed": true,
          "internalType": "address",
          "name": "to",
          "type": "address"
        }
      ],
      "name": "OwnershipTransferRequested",
      "type": "event"
    },
    {
      "anonymous": false,
      "inputs": [
        {
          "indexed": true,
          "internalType": "address",
          "name": "from",
          "type": "address"
        },
        {
          "indexed": true,
          "internalType": "address",
          "name": "to",
          "type": "address"
        }
      ],
      "name": "OwnershipTransferred",
      "type": "event"
    },
    {
      "anonymous": false,
      "inputs": [
        {
          "indexed": false,
          "internalType": "uint256",
          "name": "requestNumber",
          "type": "uint256"
        }
      ],
      "name": "RequestFullfilled",
      "type": "event"
    },
    {
      "anonymous": false,
      "inputs": [
        {
          "indexed": true,
          "internalType": "bytes32",
          "name": "requestId",
          "type": "bytes32"
        },
        {
          "indexed": false,
          "internalType": "uint256",
          "name": "Rain",
          "type": "uint256"
        }
      ],
      "name": "RequestRain",
      "type": "event"
    },
    {
      "anonymous": false,
      "inputs": [
        {
          "indexed": true,
          "internalType": "bytes32",
          "name": "requestId",
          "type": "bytes32"
        },
        {
          "indexed": false,
          "internalType": "uint256",
          "name": "WindSpeed",
          "type": "uint256"
        }
      ],
      "name": "RequestWindSpeed",
      "type": "event"
    },
    {
      "inputs": [],
      "name": "RainData",
      "outputs": [
        {
          "internalType": "uint256",
          "name": "",
          "type": "uint256"
        }
      ],
      "stateMutability": "view",
      "type": "function"
    },
    {
      "inputs": [],
      "name": "acceptOwnership",
      "outputs": [],
      "stateMutability": "nonpayable",
      "type": "function"
    },
    {
      "inputs": [
        {
          "internalType": "bytes32",
          "name": "_requestId",
          "type": "bytes32"
        },
        {
          "internalType": "uint256",
          "name": "_rainData",
          "type": "uint256"
        }
      ],
      "name": "fulfillRainData",
      "outputs": [],
      "stateMutability": "nonpayable",
      "type": "function"
    },
    {
      "inputs": [
        {
          "internalType": "bytes32",
          "name": "_requestId",
          "type": "bytes32"
        },
        {
          "internalType": "uint256",
          "name": "_windSpeed",
          "type": "uint256"
        }
      ],
      "name": "fulfillWindspeed",
      "outputs": [],
      "stateMutability": "nonpayable",
      "type": "function"
    },
    {
      "inputs": [],
      "name": "getRainData",
      "outputs": [
        {
          "internalType": "uint256",
          "name": "",
          "type": "uint256"
        }
      ],
      "stateMutability": "view",
      "type": "function"
    },
    {
      "inputs": [],
      "name": "getWindSpeedData",
      "outputs": [
        {
          "internalType": "uint256",
          "name": "",
          "type": "uint256"
        }
      ],
      "stateMutability": "view",
      "type": "function"
    },
    {
      "inputs": [],
      "name": "owner",
      "outputs": [
        {
          "internalType": "address",
          "name": "",
          "type": "address"
        }
      ],
      "stateMutability": "view",
      "type": "function"
    },
    {
      "inputs": [
        {
          "internalType": "string",
          "name": "lat",
          "type": "string"
        },
        {
          "internalType": "string",
          "name": "lon",
          "type": "string"
        },
        {
          "internalType": "string",
          "name": "date",
          "type": "string"
        },
        {
          "internalType": "string",
          "name": "hour",
          "type": "string"
        }
      ],
      "name": "requestWeatherData",
      "outputs": [],
      "stateMutability": "nonpayable",
      "type": "function"
    },
    {
      "inputs": [
        {
          "internalType": "address",
          "name": "to",
          "type": "address"
        }
      ],
      "name": "transferOwnership",
      "outputs": [],
      "stateMutability": "nonpayable",
      "type": "function"
    },
    {
      "inputs": [
        {
          "internalType": "address",
          "name": "userAddress",
          "type": "address"
        }
      ],
      "name": "updateUserWindSpeed",
      "outputs": [],
      "stateMutability": "nonpayable",
      "type": "function"
    },
    {
      "inputs": [
        {
          "internalType": "address",
          "name": "",
          "type": "address"
        }
      ],
      "name": "userRainData",
      "outputs": [
        {
          "internalType": "uint256",
          "name": "",
          "type": "uint256"
        }
      ],
      "stateMutability": "view",
      "type": "function"
    },
    {
      "inputs": [
        {
          "internalType": "address",
          "name": "",
          "type": "address"
        }
      ],
      "name": "userWindSpeedData",
      "outputs": [
        {
          "internalType": "uint256",
          "name": "",
          "type": "uint256"
        }
      ],
      "stateMutability": "view",
      "type": "function"
    },
    {
      "inputs": [],
      "name": "windSpeed",
      "outputs": [
        {
          "internalType": "uint256",
          "name": "",
          "type": "uint256"
        }
      ],
      "stateMutability": "view",
      "type": "function"
    },
    {
      "inputs": [],
      "name": "withdrawLink",
      "outputs": [],
      "stateMutability": "nonpayable",
      "type": "function"
    }
  ],
  "bytecode": "0x608060405260016004556040518060600160405280603981526020016200315d60399139600890805190602001906200003a929190620003f4565b506040518060400160405280602081526020017f62333461366239633438343234323066386366383531613464653566346636668152506009908051906020019062000088929190620003f4565b503480156200009657600080fd5b50338060008073ffffffffffffffffffffffffffffffffffffffff168273ffffffffffffffffffffffffffffffffffffffff1614156200010d576040517f08c379a0000000000000000000000000000000000000000000000000000000008152600401620001049062000505565b60405180910390fd5b81600660006101000a81548173ffffffffffffffffffffffffffffffffffffffff021916908373ffffffffffffffffffffffffffffffffffffffff160217905550600073ffffffffffffffffffffffffffffffffffffffff168173ffffffffffffffffffffffffffffffffffffffff1614620001955762000194816200023a60201b60201c565b5b505050620001bd73326c977e6efc84e512bb9c30f76e30c160ed06fb6200036c60201b60201c565b620001e27340193c8518bb267228fc409a613bdbd8ec5a97b3620003b060201b60201c565b7f6361393833363663633733313439353762386330313263373266303561656562600c81905550600a670de0b6b3a7640000600162000222919062000560565b6200022e9190620005f0565b600d81905550620006ff565b3373ffffffffffffffffffffffffffffffffffffffff168173ffffffffffffffffffffffffffffffffffffffff161415620002ac576040517f08c379a0000000000000000000000000000000000000000000000000000000008152600401620002a39062000678565b60405180910390fd5b80600760006101000a81548173ffffffffffffffffffffffffffffffffffffffff021916908373ffffffffffffffffffffffffffffffffffffffff1602179055508073ffffffffffffffffffffffffffffffffffffffff16600660009054906101000a900473ffffffffffffffffffffffffffffffffffffffff1673ffffffffffffffffffffffffffffffffffffffff167fed8889f560326eb138920d842192f0eb3dd22b4f139c87a2c57538e05bae127860405160405180910390a350565b80600260006101000a81548173ffffffffffffffffffffffffffffffffffffffff021916908373ffffffffffffffffffffffffffffffffffffffff16021790555050565b80600360006101000a81548173ffffffffffffffffffffffffffffffffffffffff021916908373ffffffffffffffffffffffffffffffffffffffff16021790555050565b8280546200040290620006c9565b90600052602060002090601f01602090048101928262000426576000855562000472565b82601f106200044157805160ff191683800117855562000472565b8280016001018555821562000472579182015b828111156200047157825182559160200191906001019062000454565b5b50905062000481919062000485565b5090565b5b80821115620004a057600081600090555060010162000486565b5090565b600082825260208201905092915050565b7f43616e6e6f7420736574206f776e657220746f207a65726f0000000000000000600082015250565b6000620004ed601883620004a4565b9150620004fa82620004b5565b602082019050919050565b600060208201905081810360008301526200052081620004de565b9050919050565b6000819050919050565b7f4e487b7100000000000000000000000000000000000000000000000000000000600052601160045260246000fd5b60006200056d8262000527565b91506200057a8362000527565b9250817fffffffffffffffffffffffffffffffffffffffffffffffffffffffffffffffff0483118215151615620005b657620005b562000531565b5b828202905092915050565b7f4e487b7100000000000000000000000000000000000000000000000000000000600052601260045260246000fd5b6000620005fd8262000527565b91506200060a8362000527565b9250826200061d576200061c620005c1565b5b828204905092915050565b7f43616e6e6f74207472616e7366657220746f2073656c66000000000000000000600082015250565b600062000660601783620004a4565b91506200066d8262000628565b602082019050919050565b60006020820190508181036000830152620006938162000651565b9050919050565b7f4e487b7100000000000000000000000000000000000000000000000000000000600052602260045260246000fd5b60006002820490506001821680620006e257607f821691505b60208210811415620006f957620006f86200069a565b5b50919050565b612a4e806200070f6000396000f3fe608060405234801561001057600080fd5b50600436106100ea5760003560e01c806379ba50971161008c578063bbd87cd711610066578063bbd87cd7146101ff578063c568dd471461021d578063dc5975c314610239578063f2fde38b14610269576100ea565b806379ba5097146101cd5780638da5cb5b146101d75780638dc654a2146101f5576100ea565b806328ae1902116100c857806328ae19021461014357806339cf35ca146101615780634f2279c21461017f57806368b59005146101af576100ea565b8063153af337146100ef578063195d4cbc1461010b578063200abc3314610127575b600080fd5b610109600480360381019061010491906119e4565b610285565b005b61012560048036038101906101209190611a82565b6103ce565b005b610141600480360381019061013c9190611bf5565b610417565b005b61014b610437565b6040516101589190611cdb565b60405180910390f35b610169610441565b6040516101769190611cdb565b60405180910390f35b61019960048036038101906101949190611a82565b610447565b6040516101a69190611cdb565b60405180910390f35b6101b761045f565b6040516101c49190611cdb565b60405180910390f35b6101d5610465565b005b6101df6105fc565b6040516101ec9190611d05565b60405180910390f35b6101fd610626565b005b610207610791565b6040516102149190611cdb565b60405180910390f35b610237600480360381019061023291906119e4565b61079b565b005b610253600480360381019061024e9190611a82565b6108e4565b6040516102609190611cdb565b60405180910390f35b610283600480360381019061027e9190611a82565b6108fc565b005b816005600082815260200190815260200160002060009054906101000a900473ffffffffffffffffffffffffffffffffffffffff1673ffffffffffffffffffffffffffffffffffffffff163373ffffffffffffffffffffffffffffffffffffffff1614610327576040517f08c379a000000000000000000000000000000000000000000000000000000000815260040161031e90611da3565b60405180910390fd5b6005600082815260200190815260200160002060006101000a81549073ffffffffffffffffffffffffffffffffffffffff0219169055807f7cc135e0cebb02c3480ae5d74d377283180a2601f8f644edf7987b009316c63a60405160405180910390a2827f53dc18fd972a2c03accb664cfa743929b2526dc9d10684c909cb741c4f3ab2bf836040516103ba9190611cdb565b60405180910390a281600b81905550505050565b600a54600e60008373ffffffffffffffffffffffffffffffffffffffff1673ffffffffffffffffffffffffffffffffffffffff1681526020019081526020016000208190555050565b61042384848484610910565b5061043084848484610acb565b5050505050565b6000600b54905090565b600b5481565b600f6020528060005260406000206000915090505481565b600a5481565b600760009054906101000a900473ffffffffffffffffffffffffffffffffffffffff1673ffffffffffffffffffffffffffffffffffffffff163373ffffffffffffffffffffffffffffffffffffffff16146104f5576040517f08c379a00000000000000000000000000000000000000000000000000000000081526004016104ec90611e0f565b60405180910390fd5b6000600660009054906101000a900473ffffffffffffffffffffffffffffffffffffffff16905033600660006101000a81548173ffffffffffffffffffffffffffffffffffffffff021916908373ffffffffffffffffffffffffffffffffffffffff1602179055506000600760006101000a81548173ffffffffffffffffffffffffffffffffffffffff021916908373ffffffffffffffffffffffffffffffffffffffff1602179055503373ffffffffffffffffffffffffffffffffffffffff168173ffffffffffffffffffffffffffffffffffffffff167f8be0079c531659141344cd1fd0a4f28419497f9722a3daafe3b4186f6b6457e060405160405180910390a350565b6000600660009054906101000a900473ffffffffffffffffffffffffffffffffffffffff16905090565b61062e610c86565b6000610638610d18565b90508073ffffffffffffffffffffffffffffffffffffffff1663a9059cbb338373ffffffffffffffffffffffffffffffffffffffff166370a08231306040518263ffffffff1660e01b81526004016106909190611d05565b60206040518083038186803b1580156106a857600080fd5b505afa1580156106bc573d6000803e3d6000fd5b505050506040513d601f19601f820116820180604052508101906106e09190611e44565b6040518363ffffffff1660e01b81526004016106fd929190611e71565b602060405180830381600087803b15801561071757600080fd5b505af115801561072b573d6000803e3d6000fd5b505050506040513d601f19601f8201168201806040525081019061074f9190611ed2565b61078e576040517f08c379a000000000000000000000000000000000000000000000000000000000815260040161078590611f4b565b60405180910390fd5b50565b6000600a54905090565b816005600082815260200190815260200160002060009054906101000a900473ffffffffffffffffffffffffffffffffffffffff1673ffffffffffffffffffffffffffffffffffffffff163373ffffffffffffffffffffffffffffffffffffffff161461083d576040517f08c379a000000000000000000000000000000000000000000000000000000000815260040161083490611da3565b60405180910390fd5b6005600082815260200190815260200160002060006101000a81549073ffffffffffffffffffffffffffffffffffffffff0219169055807f7cc135e0cebb02c3480ae5d74d377283180a2601f8f644edf7987b009316c63a60405160405180910390a2827f53dc18fd972a2c03accb664cfa743929b2526dc9d10684c909cb741c4f3ab2bf836040516108d09190611cdb565b60405180910390a281600a81905550505050565b600e6020528060005260406000206000915090505481565b610904610c86565b61090d81610d42565b50565b6000808551118015610923575060008451115b610962576040517f08c379a000000000000000000000000000000000000000000000000000000000815260040161095990611fb7565b60405180910390fd5b6000610978600c543063153af33760e01b610e71565b90506000610987878787610ea2565b90506109d36040518060400160405280600381526020017f67657400000000000000000000000000000000000000000000000000000000008152508284610ed39092919063ffffffff16565b610a5b6040518060400160405280600481526020017f7061746800000000000000000000000000000000000000000000000000000000815250610a4b6040518060400160405280600c81526020017f686f75726c792c7261696e2c000000000000000000000000000000000000000081525087610f06565b84610ed39092919063ffffffff16565b6000670de0b6b3a76400009050610ab26040518060400160405280600581526020017f74696d65730000000000000000000000000000000000000000000000000000008152508285610f329092919063ffffffff16565b610abe83600d54610f65565b9350505050949350505050565b6000808551118015610ade575060008451115b610b1d576040517f08c379a0000000000000000000000000000000000000000000000000000000008152600401610b1490611fb7565b60405180910390fd5b6000610b33600c543063c568dd4760e01b610e71565b90506000610b42878787610ea2565b9050610b8e6040518060400160405280600381526020017f67657400000000000000000000000000000000000000000000000000000000008152508284610ed39092919063ffffffff16565b610c166040518060400160405280600481526020017f7061746800000000000000000000000000000000000000000000000000000000815250610c066040518060400160405280601681526020017f686f75726c792c77696e6473706565645f3130306d2c0000000000000000000081525087610f06565b84610ed39092919063ffffffff16565b6000670de0b6b3a76400009050610c6d6040518060400160405280600581526020017f74696d65730000000000000000000000000000000000000000000000000000008152508285610f329092919063ffffffff16565b610c7983600d54610f65565b9350505050949350505050565b600660009054906101000a900473ffffffffffffffffffffffffffffffffffffffff1673ffffffffffffffffffffffffffffffffffffffff163373ffffffffffffffffffffffffffffffffffffffff1614610d16576040517f08c379a0000000000000000000000000000000000000000000000000000000008152600401610d0d90612023565b60405180910390fd5b565b6000600260009054906101000a900473ffffffffffffffffffffffffffffffffffffffff16905090565b3373ffffffffffffffffffffffffffffffffffffffff168173ffffffffffffffffffffffffffffffffffffffff161415610db1576040517f08c379a0000000000000000000000000000000000000000000000000000000008152600401610da89061208f565b60405180910390fd5b80600760006101000a81548173ffffffffffffffffffffffffffffffffffffffff021916908373ffffffffffffffffffffffffffffffffffffffff1602179055508073ffffffffffffffffffffffffffffffffffffffff16600660009054906101000a900473ffffffffffffffffffffffffffffffffffffffff1673ffffffffffffffffffffffffffffffffffffffff167fed8889f560326eb138920d842192f0eb3dd22b4f139c87a2c57538e05bae127860405160405180910390a350565b610e796118dd565b610e816118dd565b610e9885858584610f9c909392919063ffffffff16565b9150509392505050565b606083838384604051602001610ebb9493929190612317565b60405160208183030381529060405290509392505050565b610eea82846080015161104c90919063ffffffff16565b610f0181846080015161104c90919063ffffffff16565b505050565b60608282604051602001610f1b92919061238c565b604051602081830303815290604052905092915050565b610f4982846080015161104c90919063ffffffff16565b610f6081846080015161107190919063ffffffff16565b505050565b6000610f94600360009054906101000a900473ffffffffffffffffffffffffffffffffffffffff16848461111e565b905092915050565b610fa46118dd565b610fb485608001516101006111ea565b508385600001818152505082856020019073ffffffffffffffffffffffffffffffffffffffff16908173ffffffffffffffffffffffffffffffffffffffff16815250508185604001907bffffffffffffffffffffffffffffffffffffffffffffffffffffffff191690817bffffffffffffffffffffffffffffffffffffffffffffffffffffffff191681525050849050949350505050565b6110598260038351611254565b61106c81836113d990919063ffffffff16565b505050565b7fffffffffffffffffffffffffffffffffffffffffffffffff00000000000000008112156110a8576110a382826113fb565b61111a565b67ffffffffffffffff8113156110c7576110c28282611472565b611119565b600081126110e0576110db82600083611254565b611118565b611117826001837fffffffffffffffffffffffffffffffffffffffffffffffffffffffffffffffff61111291906123e9565b611254565b5b5b5b5050565b6000806004549050600181611133919061247d565b6004819055506000634042994660e01b60008087600001513089604001518760018c6080015160000151604051602401611174989796959493929190612572565b604051602081830303815290604052907bffffffffffffffffffffffffffffffffffffffffffffffffffffffff19166020820180517bffffffffffffffffffffffffffffffffffffffffffffffffffffffff838183161783525050505090506111df868386846114be565b925050509392505050565b6111f261194a565b60006020836112019190612626565b1461122d576020826112139190612626565b602061121f9190612657565b8261122a919061247d565b91505b81836020018181525050604051808452600081528281016020016040525082905092915050565b60178167ffffffffffffffff161161128b576112858160058460ff16901b60ff16178461166290919063ffffffff16565b506113d4565b60ff8167ffffffffffffffff16116112e1576112ba601860058460ff16901b178461166290919063ffffffff16565b506112db8167ffffffffffffffff166001856116829092919063ffffffff16565b506113d3565b61ffff8167ffffffffffffffff161161133857611311601960058460ff16901b178461166290919063ffffffff16565b506113328167ffffffffffffffff166002856116829092919063ffffffff16565b506113d2565b63ffffffff8167ffffffffffffffff16116113915761136a601a60058460ff16901b178461166290919063ffffffff16565b5061138b8167ffffffffffffffff166004856116829092919063ffffffff16565b506113d1565b6113ae601b60058460ff16901b178461166290919063ffffffff16565b506113cf8167ffffffffffffffff166008856116829092919063ffffffff16565b505b5b5b5b505050565b6113e161194a565b6113f3838460000151518485516116a4565b905092915050565b61141960036005600660ff16901b178361166290919063ffffffff16565b5061146e82827fffffffffffffffffffffffffffffffffffffffffffffffffffffffffffffffff61144a91906123e9565b60405160200161145a9190611cdb565b604051602081830303815290604052611793565b5050565b61149060026005600660ff16901b178361166290919063ffffffff16565b506114ba82826040516020016114a69190611cdb565b604051602081830303815290604052611793565b5050565b600030846040516020016114d3929190612744565b604051602081830303815290604052805190602001209050846005600083815260200190815260200160002060006101000a81548173ffffffffffffffffffffffffffffffffffffffff021916908373ffffffffffffffffffffffffffffffffffffffff160217905550807fb5e6e01e79f91267dc17b4e6314d5d4d03593d2ceee0fbb452b750bd70ea5af960405160405180910390a2600260009054906101000a900473ffffffffffffffffffffffffffffffffffffffff1673ffffffffffffffffffffffffffffffffffffffff16634000aea08685856040518463ffffffff1660e01b81526004016115c993929190612770565b602060405180830381600087803b1580156115e357600080fd5b505af11580156115f7573d6000803e3d6000fd5b505050506040513d601f19601f8201168201806040525081019061161b9190611ed2565b61165a576040517f08c379a000000000000000000000000000000000000000000000000000000000815260040161165190612820565b60405180910390fd5b949350505050565b61166a61194a565b61167a83846000015151846117b8565b905092915050565b61168a61194a565b61169b84856000015151858561180f565b90509392505050565b6116ac61194a565b82518211156116ba57600080fd5b846020015182856116cb919061247d565b1115611700576116ff8560026116f0886020015188876116eb919061247d565b61189d565b6116fa9190612840565b6118b9565b5b60008086518051876020830101935080888701111561171f5787860182525b60208701925050505b602084106117665780518252602082611741919061247d565b9150602081611750919061247d565b905060208461175f9190612657565b9350611728565b60006001856020036101000a03905080198251168184511681811785525050508692505050949350505050565b6117a08260028351611254565b6117b381836113d990919063ffffffff16565b505050565b6117c061194a565b836020015183106117e6576117e584600286602001516117e09190612840565b6118b9565b5b8351805160208583010184815381861415611802576001820183525b5050508390509392505050565b61181761194a565b84602001518483611828919061247d565b11156118505761184f8560028685611840919061247d565b61184a9190612840565b6118b9565b5b600060018361010061186291906129cd565b61186c9190612657565b9050855183868201018583198251161781528151858801111561188f5784870182525b505085915050949350505050565b6000818311156118af578290506118b3565b8190505b92915050565b6000826000015190506118cc83836111ea565b506118d783826113d9565b50505050565b6040518060a0016040528060008019168152602001600073ffffffffffffffffffffffffffffffffffffffff16815260200160007bffffffffffffffffffffffffffffffffffffffffffffffffffffffff191681526020016000815260200161194461194a565b81525090565b604051806040016040528060608152602001600081525090565b6000604051905090565b600080fd5b600080fd5b6000819050919050565b61198b81611978565b811461199657600080fd5b50565b6000813590506119a881611982565b92915050565b6000819050919050565b6119c1816119ae565b81146119cc57600080fd5b50565b6000813590506119de816119b8565b92915050565b600080604083850312156119fb576119fa61196e565b5b6000611a0985828601611999565b9250506020611a1a858286016119cf565b9150509250929050565b600073ffffffffffffffffffffffffffffffffffffffff82169050919050565b6000611a4f82611a24565b9050919050565b611a5f81611a44565b8114611a6a57600080fd5b50565b600081359050611a7c81611a56565b92915050565b600060208284031215611a9857611a9761196e565b5b6000611aa684828501611a6d565b91505092915050565b600080fd5b600080fd5b6000601f19601f8301169050919050565b7f4e487b7100000000000000000000000000000000000000000000000000000000600052604160045260246000fd5b611b0282611ab9565b810181811067ffffffffffffffff82111715611b2157611b20611aca565b5b80604052505050565b6000611b34611964565b9050611b408282611af9565b919050565b600067ffffffffffffffff821115611b6057611b5f611aca565b5b611b6982611ab9565b9050602081019050919050565b82818337600083830152505050565b6000611b98611b9384611b45565b611b2a565b905082815260208101848484011115611bb457611bb3611ab4565b5b611bbf848285611b76565b509392505050565b600082601f830112611bdc57611bdb611aaf565b5b8135611bec848260208601611b85565b91505092915050565b60008060008060808587031215611c0f57611c0e61196e565b5b600085013567ffffffffffffffff811115611c2d57611c2c611973565b5b611c3987828801611bc7565b945050602085013567ffffffffffffffff811115611c5a57611c59611973565b5b611c6687828801611bc7565b935050604085013567ffffffffffffffff811115611c8757611c86611973565b5b611c9387828801611bc7565b925050606085013567ffffffffffffffff811115611cb457611cb3611973565b5b611cc087828801611bc7565b91505092959194509250565b611cd5816119ae565b82525050565b6000602082019050611cf06000830184611ccc565b92915050565b611cff81611a44565b82525050565b6000602082019050611d1a6000830184611cf6565b92915050565b600082825260208201905092915050565b7f536f75726365206d75737420626520746865206f7261636c65206f662074686560008201527f2072657175657374000000000000000000000000000000000000000000000000602082015250565b6000611d8d602883611d20565b9150611d9882611d31565b604082019050919050565b60006020820190508181036000830152611dbc81611d80565b9050919050565b7f4d7573742062652070726f706f736564206f776e657200000000000000000000600082015250565b6000611df9601683611d20565b9150611e0482611dc3565b602082019050919050565b60006020820190508181036000830152611e2881611dec565b9050919050565b600081519050611e3e816119b8565b92915050565b600060208284031215611e5a57611e5961196e565b5b6000611e6884828501611e2f565b91505092915050565b6000604082019050611e866000830185611cf6565b611e936020830184611ccc565b9392505050565b60008115159050919050565b611eaf81611e9a565b8114611eba57600080fd5b50565b600081519050611ecc81611ea6565b92915050565b600060208284031215611ee857611ee761196e565b5b6000611ef684828501611ebd565b91505092915050565b7f556e61626c6520746f207472616e736665720000000000000000000000000000600082015250565b6000611f35601283611d20565b9150611f4082611eff565b602082019050919050565b60006020820190508181036000830152611f6481611f28565b9050919050565b7f696e76616c6964206c6174206c6f6e20696e7075740000000000000000000000600082015250565b6000611fa1601583611d20565b9150611fac82611f6b565b602082019050919050565b60006020820190508181036000830152611fd081611f94565b9050919050565b7f4f6e6c792063616c6c61626c65206279206f776e657200000000000000000000600082015250565b600061200d601683611d20565b915061201882611fd7565b602082019050919050565b6000602082019050818103600083015261203c81612000565b9050919050565b7f43616e6e6f74207472616e7366657220746f2073656c66000000000000000000600082015250565b6000612079601783611d20565b915061208482612043565b602082019050919050565b600060208201905081810360008301526120a88161206c565b9050919050565b600081905092915050565b7f68747470733a2f2f617263686976652d6170692e6f70656e2d6d6574656f2e6360008201527f6f6d2f76312f617263686976653f6c617469747564653d000000000000000000602082015250565b60006121166037836120af565b9150612121826120ba565b603782019050919050565b600081519050919050565b60005b8381101561215557808201518184015260208101905061213a565b83811115612164576000848401525b50505050565b60006121758261212c565b61217f81856120af565b935061218f818560208601612137565b80840191505092915050565b7f266c6f6e6769747564653d000000000000000000000000000000000000000000600082015250565b60006121d1600b836120af565b91506121dc8261219b565b600b82019050919050565b7f2673746172745f646174653d0000000000000000000000000000000000000000600082015250565b600061221d600c836120af565b9150612228826121e7565b600c82019050919050565b7f26656e645f646174653d00000000000000000000000000000000000000000000600082015250565b6000612269600a836120af565b915061227482612233565b600a82019050919050565b7f26686f75726c793d7261696e2c77696e6473706565645f3130306d266461696c60008201527f793d7261696e5f73756d2c77696e6473706565645f31306d5f6d61782674696d60208201527f657a6f6e653d6175746f00000000000000000000000000000000000000000000604082015250565b6000612301604a836120af565b915061230c8261227f565b604a82019050919050565b600061232282612109565b915061232e828761216a565b9150612339826121c4565b9150612345828661216a565b915061235082612210565b915061235c828561216a565b91506123678261225c565b9150612373828461216a565b915061237e826122f4565b915081905095945050505050565b6000612398828561216a565b91506123a4828461216a565b91508190509392505050565b6000819050919050565b7f4e487b7100000000000000000000000000000000000000000000000000000000600052601160045260246000fd5b60006123f4826123b0565b91506123ff836123b0565b9250827f80000000000000000000000000000000000000000000000000000000000000000182126000841215161561243a576124396123ba565b5b827f7fffffffffffffffffffffffffffffffffffffffffffffffffffffffffffffff018213600084121615612472576124716123ba565b5b828203905092915050565b6000612488826119ae565b9150612493836119ae565b9250827fffffffffffffffffffffffffffffffffffffffffffffffffffffffffffffffff038211156124c8576124c76123ba565b5b828201905092915050565b6124dc81611978565b82525050565b60007fffffffff0000000000000000000000000000000000000000000000000000000082169050919050565b612517816124e2565b82525050565b600081519050919050565b600082825260208201905092915050565b60006125448261251d565b61254e8185612528565b935061255e818560208601612137565b61256781611ab9565b840191505092915050565b600061010082019050612588600083018b611cf6565b612595602083018a611ccc565b6125a260408301896124d3565b6125af6060830188611cf6565b6125bc608083018761250e565b6125c960a0830186611ccc565b6125d660c0830185611ccc565b81810360e08301526125e88184612539565b90509998505050505050505050565b7f4e487b7100000000000000000000000000000000000000000000000000000000600052601260045260246000fd5b6000612631826119ae565b915061263c836119ae565b92508261264c5761264b6125f7565b5b828206905092915050565b6000612662826119ae565b915061266d836119ae565b9250828210156126805761267f6123ba565b5b828203905092915050565b6000819050919050565b60006126b06126ab6126a684611a24565b61268b565b611a24565b9050919050565b60006126c282612695565b9050919050565b60006126d4826126b7565b9050919050565b60008160601b9050919050565b60006126f3826126db565b9050919050565b6000612705826126e8565b9050919050565b61271d612718826126c9565b6126fa565b82525050565b6000819050919050565b61273e612739826119ae565b612723565b82525050565b6000612750828561270c565b601482019150612760828461272d565b6020820191508190509392505050565b60006060820190506127856000830186611cf6565b6127926020830185611ccc565b81810360408301526127a48184612539565b9050949350505050565b7f756e61626c6520746f207472616e73666572416e6443616c6c20746f206f726160008201527f636c650000000000000000000000000000000000000000000000000000000000602082015250565b600061280a602383611d20565b9150612815826127ae565b604082019050919050565b60006020820190508181036000830152612839816127fd565b9050919050565b600061284b826119ae565b9150612856836119ae565b9250817fffffffffffffffffffffffffffffffffffffffffffffffffffffffffffffffff048311821515161561288f5761288e6123ba565b5b828202905092915050565b60008160011c9050919050565b6000808291508390505b60018511156128f1578086048111156128cd576128cc6123ba565b5b60018516156128dc5780820291505b80810290506128ea8561289a565b94506128b1565b94509492505050565b60008261290a57600190506129c6565b8161291857600090506129c6565b816001811461292e576002811461293857612967565b60019150506129c6565b60ff84111561294a576129496123ba565b5b8360020a915084821115612961576129606123ba565b5b506129c6565b5060208310610133831016604e8410600b841016171561299c5782820a905083811115612997576129966123ba565b5b6129c6565b6129a984848460016128a7565b925090508184048111156129c0576129bf6123ba565b5b81810290505b9392505050565b60006129d8826119ae565b91506129e3836119ae565b9250612a107fffffffffffffffffffffffffffffffffffffffffffffffffffffffffffffffff84846128fa565b90509291505056fea2646970667358221220c696631e7031d9c4aa69cb397eba5d6b36dd6beac8253b9c10bf8e6937ab0b2464736f6c6343000809003368747470733a2f2f686973746f72792e6f70656e776561746865726d61702e6f72672f646174612f322e352f686973746f72792f636974793f",
  "linkReferences": {},
  "deployedLinkReferences": {}
}