{
  "_format": "hh-sol-artifact-1",
  "contractName": "insuranceRegistery",
  "sourceName": "contracts/insuranceRegistery.sol",
  "abi": [
    {
      "inputs": [
        {
          "internalType": "address",
          "name": "_chainLinkWeatherData",
          "type": "address"
        }
      ],
      "stateMutability": "nonpayable",
      "type": "constructor"
    },
    {
      "anonymous": false,
      "inputs": [
        {
          "indexed": false,
          "internalType": "uint256",
          "name": "InsuranceId",
          "type": "uint256"
        },
        {
          "indexed": false,
          "internalType": "string",
          "name": "massage",
          "type": "string"
        },
        {
          "indexed": false,
          "internalType": "uint256",
          "name": "amount",
          "type": "uint256"
        }
      ],
      "name": "Claimed",
      "type": "event"
    },
    {
      "anonymous": false,
      "inputs": [
        {
          "indexed": false,
          "internalType": "uint256",
          "name": "InsuranceId",
          "type": "uint256"
        },
        {
          "indexed": false,
          "internalType": "uint256",
          "name": "amount",
          "type": "uint256"
        }
      ],
      "name": "insuranceRegistered",
      "type": "event"
    },
    {
      "inputs": [],
      "name": "InsuranceId",
      "outputs": [
        {
          "internalType": "uint256",
          "name": "",
          "type": "uint256"
        }
      ],
      "stateMutability": "view",
      "type": "function"
    },
    {
      "inputs": [],
      "name": "chainLinkWeatherDataAddress",
      "outputs": [
        {
          "internalType": "address",
          "name": "",
          "type": "address"
        }
      ],
      "stateMutability": "view",
      "type": "function"
    },
    {
      "inputs": [
        {
          "internalType": "address",
          "name": "ERC20Address",
          "type": "address"
        },
        {
          "internalType": "uint256",
          "name": "_insuranceId",
          "type": "uint256"
        },
        {
          "internalType": "string",
          "name": "image",
          "type": "string"
        },
        {
          "internalType": "string",
          "name": "date",
          "type": "string"
        }
      ],
      "name": "claim",
      "outputs": [
        {
          "internalType": "bool",
          "name": "",
          "type": "bool"
        }
      ],
      "stateMutability": "nonpayable",
      "type": "function"
    },
    {
      "inputs": [
        {
          "internalType": "uint256",
          "name": "id",
          "type": "uint256"
        }
      ],
      "name": "getInsuranceDetails",
      "outputs": [
        {
          "components": [
            {
              "internalType": "address",
              "name": "userWalletAddress",
              "type": "address"
            },
            {
              "internalType": "uint256",
              "name": "startDate",
              "type": "uint256"
            },
            {
              "internalType": "uint256",
              "name": "maturityDate",
              "type": "uint256"
            },
            {
              "internalType": "uint256",
              "name": "periodTime",
              "type": "uint256"
            },
            {
              "internalType": "uint256",
              "name": "areaOfLand",
              "type": "uint256"
            },
            {
              "internalType": "string",
              "name": "seedsData",
              "type": "string"
            },
            {
              "internalType": "uint256",
              "name": "seedQuantity",
              "type": "uint256"
            },
            {
              "internalType": "string",
              "name": "image",
              "type": "string"
            },
            {
              "internalType": "string",
              "name": "yourAddress",
              "type": "string"
            },
            {
              "internalType": "uint256",
              "name": "Amount",
              "type": "uint256"
            },
            {
              "internalType": "uint16",
              "name": "percent",
              "type": "uint16"
            }
          ],
          "internalType": "struct insuranceRegistery.insuranceData",
          "name": "",
          "type": "tuple"
        }
      ],
      "stateMutability": "view",
      "type": "function"
    },
    {
      "inputs": [
        {
          "internalType": "uint256",
          "name": "id",
          "type": "uint256"
        }
      ],
      "name": "getLastInstallmentPaidTimestump",
      "outputs": [
        {
          "internalType": "uint256",
          "name": "",
          "type": "uint256"
        }
      ],
      "stateMutability": "view",
      "type": "function"
    },
    {
      "inputs": [
        {
          "internalType": "uint256",
          "name": "id",
          "type": "uint256"
        }
      ],
      "name": "getPaidInstallments",
      "outputs": [
        {
          "internalType": "uint8",
          "name": "",
          "type": "uint8"
        }
      ],
      "stateMutability": "view",
      "type": "function"
    },
    {
      "inputs": [],
      "name": "getUserInsurances",
      "outputs": [
        {
          "internalType": "uint256[]",
          "name": "",
          "type": "uint256[]"
        }
      ],
      "stateMutability": "view",
      "type": "function"
    },
    {
      "inputs": [
        {
          "internalType": "uint256",
          "name": "",
          "type": "uint256"
        }
      ],
      "name": "insuranceDetails",
      "outputs": [
        {
          "internalType": "address",
          "name": "userWalletAddress",
          "type": "address"
        },
        {
          "internalType": "uint256",
          "name": "startDate",
          "type": "uint256"
        },
        {
          "internalType": "uint256",
          "name": "maturityDate",
          "type": "uint256"
        },
        {
          "internalType": "uint256",
          "name": "periodTime",
          "type": "uint256"
        },
        {
          "internalType": "uint256",
          "name": "areaOfLand",
          "type": "uint256"
        },
        {
          "internalType": "string",
          "name": "seedsData",
          "type": "string"
        },
        {
          "internalType": "uint256",
          "name": "seedQuantity",
          "type": "uint256"
        },
        {
          "internalType": "string",
          "name": "image",
          "type": "string"
        },
        {
          "internalType": "string",
          "name": "yourAddress",
          "type": "string"
        },
        {
          "internalType": "uint256",
          "name": "Amount",
          "type": "uint256"
        },
        {
          "internalType": "uint16",
          "name": "percent",
          "type": "uint16"
        }
      ],
      "stateMutability": "view",
      "type": "function"
    },
    {
      "inputs": [
        {
          "components": [
            {
              "internalType": "address",
              "name": "userWalletAddress",
              "type": "address"
            },
            {
              "internalType": "uint256",
              "name": "startDate",
              "type": "uint256"
            },
            {
              "internalType": "uint256",
              "name": "maturityDate",
              "type": "uint256"
            },
            {
              "internalType": "uint256",
              "name": "periodTime",
              "type": "uint256"
            },
            {
              "internalType": "uint256",
              "name": "areaOfLand",
              "type": "uint256"
            },
            {
              "internalType": "string",
              "name": "seedsData",
              "type": "string"
            },
            {
              "internalType": "uint256",
              "name": "seedQuantity",
              "type": "uint256"
            },
            {
              "internalType": "string",
              "name": "image",
              "type": "string"
            },
            {
              "internalType": "string",
              "name": "yourAddress",
              "type": "string"
            },
            {
              "internalType": "uint256",
              "name": "Amount",
              "type": "uint256"
            },
            {
              "internalType": "uint16",
              "name": "percent",
              "type": "uint16"
            }
          ],
          "internalType": "struct insuranceRegistery.insuranceData",
          "name": "_insuranceData",
          "type": "tuple"
        }
      ],
      "name": "insuranceRegister",
      "outputs": [
        {
          "internalType": "uint256",
          "name": "_insuranceId",
          "type": "uint256"
        }
      ],
      "stateMutability": "nonpayable",
      "type": "function"
    },
    {
      "inputs": [
        {
          "internalType": "uint256",
          "name": "",
          "type": "uint256"
        }
      ],
      "name": "lastInstallmentPaidTimestump",
      "outputs": [
        {
          "internalType": "uint256",
          "name": "",
          "type": "uint256"
        }
      ],
      "stateMutability": "view",
      "type": "function"
    },
    {
      "inputs": [
        {
          "internalType": "uint256",
          "name": "",
          "type": "uint256"
        }
      ],
      "name": "paidInstallments",
      "outputs": [
        {
          "internalType": "uint8",
          "name": "",
          "type": "uint8"
        }
      ],
      "stateMutability": "view",
      "type": "function"
    },
    {
      "inputs": [
        {
          "internalType": "address",
          "name": "ERC20Address",
          "type": "address"
        },
        {
          "internalType": "uint256",
          "name": "_insuranceId",
          "type": "uint256"
        }
      ],
      "name": "payInstallment",
      "outputs": [],
      "stateMutability": "nonpayable",
      "type": "function"
    },
    {
      "inputs": [
        {
          "internalType": "address",
          "name": "",
          "type": "address"
        },
        {
          "internalType": "uint256",
          "name": "",
          "type": "uint256"
        }
      ],
      "name": "userInsurances",
      "outputs": [
        {
          "internalType": "uint256",
          "name": "",
          "type": "uint256"
        }
      ],
      "stateMutability": "view",
      "type": "function"
    }
  ],
  "bytecode": "0x60806040523480156200001157600080fd5b5060405162002fd338038062002fd38339818101604052810190620000379190620000f1565b600160008190555080600260006101000a81548173ffffffffffffffffffffffffffffffffffffffff021916908373ffffffffffffffffffffffffffffffffffffffff1602179055505062000123565b600080fd5b600073ffffffffffffffffffffffffffffffffffffffff82169050919050565b6000620000b9826200008c565b9050919050565b620000cb81620000ac565b8114620000d757600080fd5b50565b600081519050620000eb81620000c0565b92915050565b6000602082840312156200010a576200010962000087565b5b60006200011a84828501620000da565b91505092915050565b612ea080620001336000396000f3fe608060405234801561001057600080fd5b50600436106100cf5760003560e01c806369cf8ad71161008c578063bae5b05611610066578063bae5b05614610256578063ccf46d3414610286578063f36eeebb146102a4578063ff6ea1e5146102d4576100cf565b806369cf8ad7146101d0578063a86f678f14610200578063b52078d71461021c576100cf565b8063014d92d8146100d4578063206ff88f1461010457806323d99f2e1461013457806326b05df3146101525780633f0d22b514610182578063487e4661146101a0575b600080fd5b6100ee60048036038101906100e99190611c9f565b610304565b6040516100fb9190611ecf565b60405180910390f35b61011e60048036038101906101199190611c9f565b61059a565b60405161012b9190611f0d565b60405180910390f35b61013c6105c4565b6040516101499190611fd7565b60405180910390f35b61016c6004803603810190610167919061215a565b610659565b6040516101799190612214565b60405180910390f35b61018a6110cd565b604051610197919061223e565b60405180910390f35b6101ba60048036038101906101b59190611c9f565b6110f3565b6040516101c79190612268565b60405180910390f35b6101ea60048036038101906101e59190611c9f565b61110b565b6040516101f79190611f0d565b60405180910390f35b61021a60048036038101906102159190612283565b61112b565b005b61023660048036038101906102319190611c9f565b611628565b60405161024d9b9a9998979695949392919061231c565b60405180910390f35b610270600480360381019061026b9190612572565b611848565b60405161027d9190612268565b60405180910390f35b61028e611a90565b60405161029b9190612268565b60405180910390f35b6102be60048036038101906102b99190612283565b611a96565b6040516102cb9190612268565b60405180910390f35b6102ee60048036038101906102e99190611c9f565b611ac7565b6040516102fb9190612268565b60405180910390f35b61030c611b3e565b60036000838152602001908152602001600020604051806101600160405290816000820160009054906101000a900473ffffffffffffffffffffffffffffffffffffffff1673ffffffffffffffffffffffffffffffffffffffff1673ffffffffffffffffffffffffffffffffffffffff168152602001600182015481526020016002820154815260200160038201548152602001600482015481526020016005820180546103b9906125ea565b80601f01602080910402602001604051908101604052809291908181526020018280546103e5906125ea565b80156104325780601f1061040757610100808354040283529160200191610432565b820191906000526020600020905b81548152906001019060200180831161041557829003601f168201915b5050505050815260200160068201548152602001600782018054610455906125ea565b80601f0160208091040260200160405190810160405280929190818152602001828054610481906125ea565b80156104ce5780601f106104a3576101008083540402835291602001916104ce565b820191906000526020600020905b8154815290600101906020018083116104b157829003601f168201915b505050505081526020016008820180546104e7906125ea565b80601f0160208091040260200160405190810160405280929190818152602001828054610513906125ea565b80156105605780601f1061053557610100808354040283529160200191610560565b820191906000526020600020905b81548152906001019060200180831161054357829003601f168201915b5050505050815260200160098201548152602001600a820160009054906101000a900461ffff1661ffff1661ffff16815250509050919050565b60006004600083815260200190815260200160002060009054906101000a900460ff169050919050565b6060600660003373ffffffffffffffffffffffffffffffffffffffff1673ffffffffffffffffffffffffffffffffffffffff16815260200190815260200160002080548060200260200160405190810160405280929190818152602001828054801561064f57602002820191906000526020600020905b81548152602001906001019080831161063b575b5050505050905090565b6000610663611ae4565b426005600086815260200190815260200160002054106106b8576040517f08c379a00000000000000000000000000000000000000000000000000000000081526004016106af9061268e565b60405180910390fd5b600060036000868152602001908152602001600020604051806101600160405290816000820160009054906101000a900473ffffffffffffffffffffffffffffffffffffffff1673ffffffffffffffffffffffffffffffffffffffff1673ffffffffffffffffffffffffffffffffffffffff16815260200160018201548152602001600282015481526020016003820154815260200160048201548152602001600582018054610767906125ea565b80601f0160208091040260200160405190810160405280929190818152602001828054610793906125ea565b80156107e05780601f106107b5576101008083540402835291602001916107e0565b820191906000526020600020905b8154815290600101906020018083116107c357829003601f168201915b5050505050815260200160068201548152602001600782018054610803906125ea565b80601f016020809104026020016040519081016040528092919081815260200182805461082f906125ea565b801561087c5780601f106108515761010080835404028352916020019161087c565b820191906000526020600020905b81548152906001019060200180831161085f57829003601f168201915b50505050508152602001600882018054610895906125ea565b80601f01602080910402602001604051908101604052809291908181526020018280546108c1906125ea565b801561090e5780601f106108e35761010080835404028352916020019161090e565b820191906000526020600020905b8154815290600101906020018083116108f157829003601f168201915b5050505050815260200160098201548152602001600a820160009054906101000a900461ffff1661ffff1661ffff1681525050905042816040015111610989576040517f08c379a0000000000000000000000000000000000000000000000000000000008152600401610980906126fa565b60405180910390fd5b6000600260009054906101000a900473ffffffffffffffffffffffffffffffffffffffff1673ffffffffffffffffffffffffffffffffffffffff1663bbd87cd76040518163ffffffff1660e01b815260040160206040518083038186803b1580156109f357600080fd5b505afa158015610a07573d6000803e3d6000fd5b505050506040513d601f19601f82011682018060405250810190610a2b919061272f565b90506000600260009054906101000a900473ffffffffffffffffffffffffffffffffffffffff1673ffffffffffffffffffffffffffffffffffffffff166328ae19026040518163ffffffff1660e01b815260040160206040518083038186803b158015610a9757600080fd5b505afa158015610aab573d6000803e3d6000fd5b505050506040513d601f19601f82011682018060405250810190610acf919061272f565b9050605882101580610ae357506101f58110155b15610d9957600073__$61c3dbfad47bb5d5260aee114f5f9d6488$__633fb34003856101200151607d6040518363ffffffff1660e01b8152600401610b299291906127b0565b60206040518083038186803b158015610b4157600080fd5b505af4158015610b55573d6000803e3d6000fd5b505050506040513d601f19601f82011682018060405250810190610b79919061272f565b90503373ffffffffffffffffffffffffffffffffffffffff16846000015173ffffffffffffffffffffffffffffffffffffffff1614610bed576040517f08c379a0000000000000000000000000000000000000000000000000000000008152600401610be490612825565b60405180910390fd5b600073ffffffffffffffffffffffffffffffffffffffff168973ffffffffffffffffffffffffffffffffffffffff161415610c5d576040517f08c379a0000000000000000000000000000000000000000000000000000000008152600401610c54906128b7565b60405180910390fd5b8873ffffffffffffffffffffffffffffffffffffffff166323b872dd3330848860600151896101200151610c919190612906565b610c9b9190612960565b6040518463ffffffff1660e01b8152600401610cb9939291906129b6565b602060405180830381600087803b158015610cd357600080fd5b505af1158015610ce7573d6000803e3d6000fd5b505050506040513d601f19601f82011682018060405250810190610d0b9190612a19565b610d4a576040517f08c379a0000000000000000000000000000000000000000000000000000000008152600401610d4190612a92565b60405180910390fd5b7f9eb9ef6bc25ab8bf0bc9a4907fa27dab76ea367b559d928306db5ac5b2656e348882866101200151610d7d9190612960565b604051610d8b929190612afe565b60405180910390a1506110b5565b602e82101580610dab57506101918110155b1561106e57600073__$61c3dbfad47bb5d5260aee114f5f9d6488$__633fb340038560600151866101200151610de19190612906565b60646040518363ffffffff1660e01b8152600401610e00929190612b75565b60206040518083038186803b158015610e1857600080fd5b505af4158015610e2c573d6000803e3d6000fd5b505050506040513d601f19601f82011682018060405250810190610e50919061272f565b90503373ffffffffffffffffffffffffffffffffffffffff16846000015173ffffffffffffffffffffffffffffffffffffffff1614610ec4576040517f08c379a0000000000000000000000000000000000000000000000000000000008152600401610ebb90612825565b60405180910390fd5b600073ffffffffffffffffffffffffffffffffffffffff168973ffffffffffffffffffffffffffffffffffffffff161415610f34576040517f08c379a0000000000000000000000000000000000000000000000000000000008152600401610f2b906128b7565b60405180910390fd5b8873ffffffffffffffffffffffffffffffffffffffff1663a9059cbb33838760600151886101200151610f679190612906565b610f719190612960565b6040518363ffffffff1660e01b8152600401610f8e929190612b9e565b602060405180830381600087803b158015610fa857600080fd5b505af1158015610fbc573d6000803e3d6000fd5b505050506040513d601f19601f82011682018060405250810190610fe09190612a19565b61101f576040517f08c379a000000000000000000000000000000000000000000000000000000000815260040161101690612a92565b60405180910390fd5b7f9eb9ef6bc25ab8bf0bc9a4907fa27dab76ea367b559d928306db5ac5b2656e3488828661012001516110529190612960565b604051611060929190612afe565b60405180910390a1506110b4565b7f9eb9ef6bc25ab8bf0bc9a4907fa27dab76ea367b559d928306db5ac5b2656e348760006040516110a0929190612c4e565b60405180910390a1600093505050506110bd565b5b600193505050505b6110c5611b34565b949350505050565b600260009054906101000a900473ffffffffffffffffffffffffffffffffffffffff1681565b60056020528060005260406000206000915090505481565b60046020528060005260406000206000915054906101000a900460ff1681565b611133611ae4565b600060036000838152602001908152602001600020604051806101600160405290816000820160009054906101000a900473ffffffffffffffffffffffffffffffffffffffff1673ffffffffffffffffffffffffffffffffffffffff1673ffffffffffffffffffffffffffffffffffffffff168152602001600182015481526020016002820154815260200160038201548152602001600482015481526020016005820180546111e2906125ea565b80601f016020809104026020016040519081016040528092919081815260200182805461120e906125ea565b801561125b5780601f106112305761010080835404028352916020019161125b565b820191906000526020600020905b81548152906001019060200180831161123e57829003601f168201915b505050505081526020016006820154815260200160078201805461127e906125ea565b80601f01602080910402602001604051908101604052809291908181526020018280546112aa906125ea565b80156112f75780601f106112cc576101008083540402835291602001916112f7565b820191906000526020600020905b8154815290600101906020018083116112da57829003601f168201915b50505050508152602001600882018054611310906125ea565b80601f016020809104026020016040519081016040528092919081815260200182805461133c906125ea565b80156113895780601f1061135e57610100808354040283529160200191611389565b820191906000526020600020905b81548152906001019060200180831161136c57829003601f168201915b5050505050815260200160098201548152602001600a820160009054906101000a900461ffff1661ffff1661ffff168152505090503373ffffffffffffffffffffffffffffffffffffffff16816000015173ffffffffffffffffffffffffffffffffffffffff1614611430576040517f08c379a000000000000000000000000000000000000000000000000000000000815260040161142790612825565b60405180910390fd5b600073ffffffffffffffffffffffffffffffffffffffff168373ffffffffffffffffffffffffffffffffffffffff1614156114a0576040517f08c379a0000000000000000000000000000000000000000000000000000000008152600401611497906128b7565b60405180910390fd5b42816040015110156114e7576040517f08c379a00000000000000000000000000000000000000000000000000000000081526004016114de90612cd6565b60405180910390fd5b60046000838152602001908152602001600020600081819054906101000a900460ff168092919061151790612cf6565b91906101000a81548160ff021916908360ff160217905550504260056000848152602001908152602001600020819055508273ffffffffffffffffffffffffffffffffffffffff166323b872dd33308461012001516040518463ffffffff1660e01b815260040161158a939291906129b6565b602060405180830381600087803b1580156115a457600080fd5b505af11580156115b8573d6000803e3d6000fd5b505050506040513d601f19601f820116820180604052508101906115dc9190612a19565b61161b576040517f08c379a000000000000000000000000000000000000000000000000000000000815260040161161290612a92565b60405180910390fd5b50611624611b34565b5050565b60036020528060005260406000206000915090508060000160009054906101000a900473ffffffffffffffffffffffffffffffffffffffff1690806001015490806002015490806003015490806004015490806005018054611689906125ea565b80601f01602080910402602001604051908101604052809291908181526020018280546116b5906125ea565b80156117025780601f106116d757610100808354040283529160200191611702565b820191906000526020600020905b8154815290600101906020018083116116e557829003601f168201915b50505050509080600601549080600701805461171d906125ea565b80601f0160208091040260200160405190810160405280929190818152602001828054611749906125ea565b80156117965780601f1061176b57610100808354040283529160200191611796565b820191906000526020600020905b81548152906001019060200180831161177957829003601f168201915b5050505050908060080180546117ab906125ea565b80601f01602080910402602001604051908101604052809291908181526020018280546117d7906125ea565b80156118245780601f106117f957610100808354040283529160200191611824565b820191906000526020600020905b81548152906001019060200180831161180757829003601f168201915b50505050509080600901549080600a0160009054906101000a900461ffff1690508b565b60008073ffffffffffffffffffffffffffffffffffffffff163373ffffffffffffffffffffffffffffffffffffffff1614156118b9576040517f08c379a00000000000000000000000000000000000000000000000000000000081526004016118b090612d6c565b60405180910390fd5b6001600081546118c890612d8c565b9190508190559050816003600083815260200190815260200160002060008201518160000160006101000a81548173ffffffffffffffffffffffffffffffffffffffff021916908373ffffffffffffffffffffffffffffffffffffffff1602179055506020820151816001015560408201518160020155606082015181600301556080820151816004015560a082015181600501908051906020019061196f929190611bb2565b5060c0820151816006015560e0820151816007019080519060200190611996929190611bb2565b506101008201518160080190805190602001906119b4929190611bb2565b50610120820151816009015561014082015181600a0160006101000a81548161ffff021916908361ffff160217905550905050600660003373ffffffffffffffffffffffffffffffffffffffff1673ffffffffffffffffffffffffffffffffffffffff1681526020019081526020016000208190806001815401808255809150506001900390600052602060002001600090919091909150557f75f0e88e04463f86c7e1e71465891020fa84744536526c63c08c967fcb3acbfc81836101200151604051611a83929190612dd5565b60405180910390a1919050565b60015481565b60066020528160005260406000208181548110611ab257600080fd5b90600052602060002001600091509150505481565b600060056000838152602001908152602001600020549050919050565b60026000541415611b2a576040517f08c379a0000000000000000000000000000000000000000000000000000000008152600401611b2190612e4a565b60405180910390fd5b6002600081905550565b6001600081905550565b604051806101600160405280600073ffffffffffffffffffffffffffffffffffffffff168152602001600081526020016000815260200160008152602001600081526020016060815260200160008152602001606081526020016060815260200160008152602001600061ffff1681525090565b828054611bbe906125ea565b90600052602060002090601f016020900481019282611be05760008555611c27565b82601f10611bf957805160ff1916838001178555611c27565b82800160010185558215611c27579182015b82811115611c26578251825591602001919060010190611c0b565b5b509050611c349190611c38565b5090565b5b80821115611c51576000816000905550600101611c39565b5090565b6000604051905090565b600080fd5b600080fd5b6000819050919050565b611c7c81611c69565b8114611c8757600080fd5b50565b600081359050611c9981611c73565b92915050565b600060208284031215611cb557611cb4611c5f565b5b6000611cc384828501611c8a565b91505092915050565b600073ffffffffffffffffffffffffffffffffffffffff82169050919050565b6000611cf782611ccc565b9050919050565b611d0781611cec565b82525050565b611d1681611c69565b82525050565b600081519050919050565b600082825260208201905092915050565b60005b83811015611d56578082015181840152602081019050611d3b565b83811115611d65576000848401525b50505050565b6000601f19601f8301169050919050565b6000611d8782611d1c565b611d918185611d27565b9350611da1818560208601611d38565b611daa81611d6b565b840191505092915050565b600061ffff82169050919050565b611dcc81611db5565b82525050565b600061016083016000830151611deb6000860182611cfe565b506020830151611dfe6020860182611d0d565b506040830151611e116040860182611d0d565b506060830151611e246060860182611d0d565b506080830151611e376080860182611d0d565b5060a083015184820360a0860152611e4f8282611d7c565b91505060c0830151611e6460c0860182611d0d565b5060e083015184820360e0860152611e7c8282611d7c565b915050610100830151848203610100860152611e988282611d7c565b915050610120830151611eaf610120860182611d0d565b50610140830151611ec4610140860182611dc3565b508091505092915050565b60006020820190508181036000830152611ee98184611dd2565b905092915050565b600060ff82169050919050565b611f0781611ef1565b82525050565b6000602082019050611f226000830184611efe565b92915050565b600081519050919050565b600082825260208201905092915050565b6000819050602082019050919050565b6000611f608383611d0d565b60208301905092915050565b6000602082019050919050565b6000611f8482611f28565b611f8e8185611f33565b9350611f9983611f44565b8060005b83811015611fca578151611fb18882611f54565b9750611fbc83611f6c565b925050600181019050611f9d565b5085935050505092915050565b60006020820190508181036000830152611ff18184611f79565b905092915050565b61200281611cec565b811461200d57600080fd5b50565b60008135905061201f81611ff9565b92915050565b600080fd5b600080fd5b7f4e487b7100000000000000000000000000000000000000000000000000000000600052604160045260246000fd5b61206782611d6b565b810181811067ffffffffffffffff821117156120865761208561202f565b5b80604052505050565b6000612099611c55565b90506120a5828261205e565b919050565b600067ffffffffffffffff8211156120c5576120c461202f565b5b6120ce82611d6b565b9050602081019050919050565b82818337600083830152505050565b60006120fd6120f8846120aa565b61208f565b9050828152602081018484840111156121195761211861202a565b5b6121248482856120db565b509392505050565b600082601f83011261214157612140612025565b5b81356121518482602086016120ea565b91505092915050565b6000806000806080858703121561217457612173611c5f565b5b600061218287828801612010565b945050602061219387828801611c8a565b935050604085013567ffffffffffffffff8111156121b4576121b3611c64565b5b6121c08782880161212c565b925050606085013567ffffffffffffffff8111156121e1576121e0611c64565b5b6121ed8782880161212c565b91505092959194509250565b60008115159050919050565b61220e816121f9565b82525050565b60006020820190506122296000830184612205565b92915050565b61223881611cec565b82525050565b6000602082019050612253600083018461222f565b92915050565b61226281611c69565b82525050565b600060208201905061227d6000830184612259565b92915050565b6000806040838503121561229a57612299611c5f565b5b60006122a885828601612010565b92505060206122b985828601611c8a565b9150509250929050565b600082825260208201905092915050565b60006122df82611d1c565b6122e981856122c3565b93506122f9818560208601611d38565b61230281611d6b565b840191505092915050565b61231681611db5565b82525050565b600061016082019050612332600083018e61222f565b61233f602083018d612259565b61234c604083018c612259565b612359606083018b612259565b612366608083018a612259565b81810360a083015261237881896122d4565b905061238760c0830188612259565b81810360e083015261239981876122d4565b90508181036101008301526123ae81866122d4565b90506123be610120830185612259565b6123cc61014083018461230d565b9c9b505050505050505050505050565b600080fd5b600080fd5b6123ef81611db5565b81146123fa57600080fd5b50565b60008135905061240c816123e6565b92915050565b60006101608284031215612429576124286123dc565b5b61243461016061208f565b9050600061244484828501612010565b600083015250602061245884828501611c8a565b602083015250604061246c84828501611c8a565b604083015250606061248084828501611c8a565b606083015250608061249484828501611c8a565b60808301525060a082013567ffffffffffffffff8111156124b8576124b76123e1565b5b6124c48482850161212c565b60a08301525060c06124d884828501611c8a565b60c08301525060e082013567ffffffffffffffff8111156124fc576124fb6123e1565b5b6125088482850161212c565b60e08301525061010082013567ffffffffffffffff81111561252d5761252c6123e1565b5b6125398482850161212c565b6101008301525061012061254f84828501611c8a565b61012083015250610140612565848285016123fd565b6101408301525092915050565b60006020828403121561258857612587611c5f565b5b600082013567ffffffffffffffff8111156125a6576125a5611c64565b5b6125b284828501612412565b91505092915050565b7f4e487b7100000000000000000000000000000000000000000000000000000000600052602260045260246000fd5b6000600282049050600182168061260257607f821691505b60208210811415612616576126156125bb565b5b50919050565b7f596f752061726520636c61696d696e672061742077726f6e672074696d65737460008201527f616d700000000000000000000000000000000000000000000000000000000000602082015250565b60006126786023836122c3565b91506126838261261c565b604082019050919050565b600060208201905081810360008301526126a78161266b565b9050919050565b7f596f7572206d617475726974792064617465206973206f766572000000000000600082015250565b60006126e4601a836122c3565b91506126ef826126ae565b602082019050919050565b60006020820190508181036000830152612713816126d7565b9050919050565b60008151905061272981611c73565b92915050565b60006020828403121561274557612744611c5f565b5b60006127538482850161271a565b91505092915050565b61276581611c69565b82525050565b6000819050919050565b6000819050919050565b600061279a6127956127908461276b565b612775565b611db5565b9050919050565b6127aa8161277f565b82525050565b60006040820190506127c5600083018561275c565b6127d260208301846127a1565b9392505050565b7f54686973206973206e6f7420796f757220496e737572616e6365000000000000600082015250565b600061280f601a836122c3565b915061281a826127d9565b602082019050919050565b6000602082019050818103600083015261283e81612802565b9050919050565b7f796f752063616e277420646f20746869732077697468207a65726f206164647260008201527f6573730000000000000000000000000000000000000000000000000000000000602082015250565b60006128a16023836122c3565b91506128ac82612845565b604082019050919050565b600060208201905081810360008301526128d081612894565b9050919050565b7f4e487b7100000000000000000000000000000000000000000000000000000000600052601160045260246000fd5b600061291182611c69565b915061291c83611c69565b9250817fffffffffffffffffffffffffffffffffffffffffffffffffffffffffffffffff0483118215151615612955576129546128d7565b5b828202905092915050565b600061296b82611c69565b915061297683611c69565b9250827fffffffffffffffffffffffffffffffffffffffffffffffffffffffffffffffff038211156129ab576129aa6128d7565b5b828201905092915050565b60006060820190506129cb600083018661222f565b6129d8602083018561222f565b6129e56040830184612259565b949350505050565b6129f6816121f9565b8114612a0157600080fd5b50565b600081519050612a13816129ed565b92915050565b600060208284031215612a2f57612a2e611c5f565b5b6000612a3d84828501612a04565b91505092915050565b7f556e61626c6520746f2074616e736665722046756e6400000000000000000000600082015250565b6000612a7c6016836122c3565b9150612a8782612a46565b602082019050919050565b60006020820190508181036000830152612aab81612a6f565b9050919050565b7f7375636365737300000000000000000000000000000000000000000000000000600082015250565b6000612ae86007836122c3565b9150612af382612ab2565b602082019050919050565b6000606082019050612b136000830185612259565b8181036020830152612b2481612adb565b9050612b336040830184612259565b9392505050565b6000819050919050565b6000612b5f612b5a612b5584612b3a565b612775565b611db5565b9050919050565b612b6f81612b44565b82525050565b6000604082019050612b8a600083018561275c565b612b976020830184612b66565b9392505050565b6000604082019050612bb3600083018561222f565b612bc06020830184612259565b9392505050565b7f756e737563636573730000000000000000000000000000000000000000000000600082015250565b6000612bfd6009836122c3565b9150612c0882612bc7565b602082019050919050565b6000819050919050565b6000612c38612c33612c2e84612c13565b612775565b611c69565b9050919050565b612c4881612c1d565b82525050565b6000606082019050612c636000830185612259565b8181036020830152612c7481612bf0565b9050612c836040830184612c3f565b9392505050565b7f796f7572206d617475726974792044617465206973206f766572000000000000600082015250565b6000612cc0601a836122c3565b9150612ccb82612c8a565b602082019050919050565b60006020820190508181036000830152612cef81612cb3565b9050919050565b6000612d0182611ef1565b915060ff821415612d1557612d146128d7565b5b600182019050919050565b7f46616b6520416464726573730000000000000000000000000000000000000000600082015250565b6000612d56600c836122c3565b9150612d6182612d20565b602082019050919050565b60006020820190508181036000830152612d8581612d49565b9050919050565b6000612d9782611c69565b91507fffffffffffffffffffffffffffffffffffffffffffffffffffffffffffffffff821415612dca57612dc96128d7565b5b600182019050919050565b6000604082019050612dea6000830185612259565b612df76020830184612259565b9392505050565b7f5265656e7472616e637947756172643a207265656e7472616e742063616c6c00600082015250565b6000612e34601f836122c3565b9150612e3f82612dfe565b602082019050919050565b60006020820190508181036000830152612e6381612e27565b905091905056fea26469706673582212205e4592172b24bb9124053bc2ccadc4796e22cc2ad5bb2ce2af9541cb6feb31b664736f6c63430008090033",
  "linkReferences": {
    "contracts/Libraries/LibCalculations.sol": {
      "LibCalculations": [
        {
          "length": 20,
          "start": 3103
        },
        {
          "length": 20,
          "start": 3815
        }
      ]
    }
  },
  "deployedLinkReferences": {
    "contracts/Libraries/LibCalculations.sol": {
      "LibCalculations": [
        {
          "length": 20,
          "start": 2796
        },
        {
          "length": 20,
          "start": 3508
        }
      ]
    }
  }
}