{
  "_format": "hh-sol-artifact-1",
  "contractName": "insuranceRegistery",
  "sourceName": "contracts/insuranceRegistery.sol",
  "abi": [
    {
      "anonymous": false,
      "inputs": [
        {
          "indexed": false,
          "internalType": "uint256",
          "name": "InsuranceId",
          "type": "uint256"
        },
        {
          "indexed": false,
          "internalType": "string",
          "name": "massage",
          "type": "string"
        },
        {
          "indexed": false,
          "internalType": "uint256",
          "name": "amount",
          "type": "uint256"
        }
      ],
      "name": "Claimed",
      "type": "event"
    },
    {
      "anonymous": false,
      "inputs": [
        {
          "indexed": false,
          "internalType": "uint256",
          "name": "InsuranceId",
          "type": "uint256"
        },
        {
          "indexed": false,
          "internalType": "uint256",
          "name": "amount",
          "type": "uint256"
        }
      ],
      "name": "insuranceRegistered",
      "type": "event"
    },
    {
      "inputs": [],
      "name": "InsuranceId",
      "outputs": [
        {
          "internalType": "uint256",
          "name": "",
          "type": "uint256"
        }
      ],
      "stateMutability": "view",
      "type": "function"
    },
    {
      "inputs": [
        {
          "internalType": "address",
          "name": "ERC20Address",
          "type": "address"
        },
        {
          "internalType": "uint256",
          "name": "_insuranceId",
          "type": "uint256"
        },
        {
          "internalType": "string",
          "name": "image",
          "type": "string"
        },
        {
          "internalType": "string",
          "name": "date",
          "type": "string"
        },
        {
          "internalType": "bool",
          "name": "chainlink",
          "type": "bool"
        }
      ],
      "name": "claim",
      "outputs": [],
      "stateMutability": "nonpayable",
      "type": "function"
    },
    {
      "inputs": [
        {
          "internalType": "string",
          "name": "date",
          "type": "string"
        }
      ],
      "name": "dataFromChainLink",
      "outputs": [
        {
          "internalType": "bool",
          "name": "",
          "type": "bool"
        }
      ],
      "stateMutability": "pure",
      "type": "function"
    },
    {
      "inputs": [
        {
          "internalType": "uint256",
          "name": "id",
          "type": "uint256"
        }
      ],
      "name": "getInsuranceDetails",
      "outputs": [
        {
          "components": [
            {
              "internalType": "address",
              "name": "userWalletAddress",
              "type": "address"
            },
            {
              "internalType": "uint256",
              "name": "startDate",
              "type": "uint256"
            },
            {
              "internalType": "uint256",
              "name": "maturityDate",
              "type": "uint256"
            },
            {
              "internalType": "uint256",
              "name": "periodTime",
              "type": "uint256"
            },
            {
              "internalType": "uint256",
              "name": "areaOfLand",
              "type": "uint256"
            },
            {
              "internalType": "string",
              "name": "seedsData",
              "type": "string"
            },
            {
              "internalType": "uint256",
              "name": "seedQuantity",
              "type": "uint256"
            },
            {
              "internalType": "string",
              "name": "image",
              "type": "string"
            },
            {
              "internalType": "string",
              "name": "yourAddress",
              "type": "string"
            },
            {
              "internalType": "uint256",
              "name": "Amount",
              "type": "uint256"
            },
            {
              "internalType": "string",
              "name": "lat",
              "type": "string"
            },
            {
              "internalType": "string",
              "name": "long",
              "type": "string"
            }
          ],
          "internalType": "struct insuranceRegistery.insuranceData",
          "name": "",
          "type": "tuple"
        }
      ],
      "stateMutability": "view",
      "type": "function"
    },
    {
      "inputs": [
        {
          "internalType": "uint256",
          "name": "id",
          "type": "uint256"
        }
      ],
      "name": "getLastInstallmentPaidTimestump",
      "outputs": [
        {
          "internalType": "uint256",
          "name": "",
          "type": "uint256"
        }
      ],
      "stateMutability": "view",
      "type": "function"
    },
    {
      "inputs": [
        {
          "internalType": "uint256",
          "name": "id",
          "type": "uint256"
        }
      ],
      "name": "getPaidInstallments",
      "outputs": [
        {
          "internalType": "uint8",
          "name": "",
          "type": "uint8"
        }
      ],
      "stateMutability": "view",
      "type": "function"
    },
    {
      "inputs": [],
      "name": "getUserInsurances",
      "outputs": [
        {
          "internalType": "uint256[]",
          "name": "",
          "type": "uint256[]"
        }
      ],
      "stateMutability": "view",
      "type": "function"
    },
    {
      "inputs": [
        {
          "internalType": "uint256",
          "name": "",
          "type": "uint256"
        }
      ],
      "name": "insuranceDetails",
      "outputs": [
        {
          "internalType": "address",
          "name": "userWalletAddress",
          "type": "address"
        },
        {
          "internalType": "uint256",
          "name": "startDate",
          "type": "uint256"
        },
        {
          "internalType": "uint256",
          "name": "maturityDate",
          "type": "uint256"
        },
        {
          "internalType": "uint256",
          "name": "periodTime",
          "type": "uint256"
        },
        {
          "internalType": "uint256",
          "name": "areaOfLand",
          "type": "uint256"
        },
        {
          "internalType": "string",
          "name": "seedsData",
          "type": "string"
        },
        {
          "internalType": "uint256",
          "name": "seedQuantity",
          "type": "uint256"
        },
        {
          "internalType": "string",
          "name": "image",
          "type": "string"
        },
        {
          "internalType": "string",
          "name": "yourAddress",
          "type": "string"
        },
        {
          "internalType": "uint256",
          "name": "Amount",
          "type": "uint256"
        },
        {
          "internalType": "string",
          "name": "lat",
          "type": "string"
        },
        {
          "internalType": "string",
          "name": "long",
          "type": "string"
        }
      ],
      "stateMutability": "view",
      "type": "function"
    },
    {
      "inputs": [
        {
          "components": [
            {
              "internalType": "address",
              "name": "userWalletAddress",
              "type": "address"
            },
            {
              "internalType": "uint256",
              "name": "startDate",
              "type": "uint256"
            },
            {
              "internalType": "uint256",
              "name": "maturityDate",
              "type": "uint256"
            },
            {
              "internalType": "uint256",
              "name": "periodTime",
              "type": "uint256"
            },
            {
              "internalType": "uint256",
              "name": "areaOfLand",
              "type": "uint256"
            },
            {
              "internalType": "string",
              "name": "seedsData",
              "type": "string"
            },
            {
              "internalType": "uint256",
              "name": "seedQuantity",
              "type": "uint256"
            },
            {
              "internalType": "string",
              "name": "image",
              "type": "string"
            },
            {
              "internalType": "string",
              "name": "yourAddress",
              "type": "string"
            },
            {
              "internalType": "uint256",
              "name": "Amount",
              "type": "uint256"
            },
            {
              "internalType": "string",
              "name": "lat",
              "type": "string"
            },
            {
              "internalType": "string",
              "name": "long",
              "type": "string"
            }
          ],
          "internalType": "struct insuranceRegistery.insuranceData",
          "name": "_insuranceData",
          "type": "tuple"
        }
      ],
      "name": "insuranceRegister",
      "outputs": [
        {
          "internalType": "uint256",
          "name": "_insuranceId",
          "type": "uint256"
        }
      ],
      "stateMutability": "nonpayable",
      "type": "function"
    },
    {
      "inputs": [
        {
          "internalType": "uint256",
          "name": "",
          "type": "uint256"
        }
      ],
      "name": "lastInstallmentPaidTimestump",
      "outputs": [
        {
          "internalType": "uint256",
          "name": "",
          "type": "uint256"
        }
      ],
      "stateMutability": "view",
      "type": "function"
    },
    {
      "inputs": [
        {
          "internalType": "uint256",
          "name": "",
          "type": "uint256"
        }
      ],
      "name": "paidInstallments",
      "outputs": [
        {
          "internalType": "uint8",
          "name": "",
          "type": "uint8"
        }
      ],
      "stateMutability": "view",
      "type": "function"
    },
    {
      "inputs": [
        {
          "internalType": "address",
          "name": "ERC20Address",
          "type": "address"
        },
        {
          "internalType": "uint256",
          "name": "_insuranceId",
          "type": "uint256"
        }
      ],
      "name": "payInstallment",
      "outputs": [],
      "stateMutability": "nonpayable",
      "type": "function"
    },
    {
      "inputs": [
        {
          "internalType": "address",
          "name": "",
          "type": "address"
        },
        {
          "internalType": "uint256",
          "name": "",
          "type": "uint256"
        }
      ],
      "name": "userInsurances",
      "outputs": [
        {
          "internalType": "uint256",
          "name": "",
          "type": "uint256"
        }
      ],
      "stateMutability": "view",
      "type": "function"
    }
  ],
  "bytecode": "0x608060405234801561001057600080fd5b506001600081905550612b91806100286000396000f3fe608060405234801561001057600080fd5b50600436106100cf5760003560e01c806369cf8ad71161008c578063ccf46d3411610066578063ccf46d3414610255578063ed80db3514610273578063f36eeebb146102a3578063ff6ea1e5146102d3576100cf565b806369cf8ad7146101ce578063a86f678f146101fe578063b52078d71461021a576100cf565b8063014d92d8146100d4578063206ff88f1461010457806323d99f2e1461013457806346c37acc14610152578063487e4661146101825780635a514dd6146101b2575b600080fd5b6100ee60048036038101906100e99190611b6f565b610303565b6040516100fb9190611da5565b60405180910390f35b61011e60048036038101906101199190611b6f565b61069d565b60405161012b9190611de3565b60405180910390f35b61013c6106c7565b6040516101499190611ead565b60405180910390f35b61016c600480360381019061016791906121e8565b61075c565b6040516101799190612240565b60405180910390f35b61019c60048036038101906101979190611b6f565b6109bc565b6040516101a99190612240565b60405180910390f35b6101cc60048036038101906101c79190612293565b6109d4565b005b6101e860048036038101906101e39190611b6f565b61100b565b6040516101f59190611de3565b60405180910390f35b61021860048036038101906102139190612346565b61102b565b005b610234600480360381019061022f9190611b6f565b61162a565b60405161024c9c9b9a999897969594939291906123df565b60405180910390f35b61025d611952565b60405161026a9190612240565b60405180910390f35b61028d600480360381019061028891906124bc565b611958565b60405161029a9190612514565b60405180910390f35b6102bd60048036038101906102b89190612346565b611963565b6040516102ca9190612240565b60405180910390f35b6102ed60048036038101906102e89190611b6f565b611994565b6040516102fa9190612240565b60405180910390f35b61030b611a0b565b60026000838152602001908152602001600020604051806101800160405290816000820160009054906101000a900473ffffffffffffffffffffffffffffffffffffffff1673ffffffffffffffffffffffffffffffffffffffff1673ffffffffffffffffffffffffffffffffffffffff168152602001600182015481526020016002820154815260200160038201548152602001600482015481526020016005820180546103b89061255e565b80601f01602080910402602001604051908101604052809291908181526020018280546103e49061255e565b80156104315780601f1061040657610100808354040283529160200191610431565b820191906000526020600020905b81548152906001019060200180831161041457829003601f168201915b50505050508152602001600682015481526020016007820180546104549061255e565b80601f01602080910402602001604051908101604052809291908181526020018280546104809061255e565b80156104cd5780601f106104a2576101008083540402835291602001916104cd565b820191906000526020600020905b8154815290600101906020018083116104b057829003601f168201915b505050505081526020016008820180546104e69061255e565b80601f01602080910402602001604051908101604052809291908181526020018280546105129061255e565b801561055f5780601f106105345761010080835404028352916020019161055f565b820191906000526020600020905b81548152906001019060200180831161054257829003601f168201915b5050505050815260200160098201548152602001600a820180546105829061255e565b80601f01602080910402602001604051908101604052809291908181526020018280546105ae9061255e565b80156105fb5780601f106105d0576101008083540402835291602001916105fb565b820191906000526020600020905b8154815290600101906020018083116105de57829003601f168201915b50505050508152602001600b820180546106149061255e565b80601f01602080910402602001604051908101604052809291908181526020018280546106409061255e565b801561068d5780601f106106625761010080835404028352916020019161068d565b820191906000526020600020905b81548152906001019060200180831161067057829003601f168201915b5050505050815250509050919050565b60006003600083815260200190815260200160002060009054906101000a900460ff169050919050565b6060600560003373ffffffffffffffffffffffffffffffffffffffff1673ffffffffffffffffffffffffffffffffffffffff16815260200190815260200160002080548060200260200160405190810160405280929190818152602001828054801561075257602002820191906000526020600020905b81548152602001906001019080831161073e575b5050505050905090565b60008073ffffffffffffffffffffffffffffffffffffffff163373ffffffffffffffffffffffffffffffffffffffff1614156107cd576040517f08c379a00000000000000000000000000000000000000000000000000000000081526004016107c4906125dc565b60405180910390fd5b6001600081546107dc9061262b565b9190508190559050816002600083815260200190815260200160002060008201518160000160006101000a81548173ffffffffffffffffffffffffffffffffffffffff021916908373ffffffffffffffffffffffffffffffffffffffff1602179055506020820151816001015560408201518160020155606082015181600301556080820151816004015560a0820151816005019080519060200190610883929190611a82565b5060c0820151816006015560e08201518160070190805190602001906108aa929190611a82565b506101008201518160080190805190602001906108c8929190611a82565b50610120820151816009015561014082015181600a0190805190602001906108f1929190611a82565b5061016082015181600b01908051906020019061090f929190611a82565b50905050600560003373ffffffffffffffffffffffffffffffffffffffff1673ffffffffffffffffffffffffffffffffffffffff1681526020019081526020016000208190806001815401808255809150506001900390600052602060002001600090919091909150557f75f0e88e04463f86c7e1e71465891020fa84744536526c63c08c967fcb3acbfc818361012001516040516109af929190612674565b60405180910390a1919050565b60046020528060005260406000206000915090505481565b6109dc6119b1565b42600460008681526020019081526020016000205410610a31576040517f08c379a0000000000000000000000000000000000000000000000000000000008152600401610a289061270f565b60405180910390fd5b8015610fc157600060026000868152602001908152602001600020604051806101800160405290816000820160009054906101000a900473ffffffffffffffffffffffffffffffffffffffff1673ffffffffffffffffffffffffffffffffffffffff1673ffffffffffffffffffffffffffffffffffffffff16815260200160018201548152602001600282015481526020016003820154815260200160048201548152602001600582018054610ae69061255e565b80601f0160208091040260200160405190810160405280929190818152602001828054610b129061255e565b8015610b5f5780601f10610b3457610100808354040283529160200191610b5f565b820191906000526020600020905b815481529060010190602001808311610b4257829003601f168201915b5050505050815260200160068201548152602001600782018054610b829061255e565b80601f0160208091040260200160405190810160405280929190818152602001828054610bae9061255e565b8015610bfb5780601f10610bd057610100808354040283529160200191610bfb565b820191906000526020600020905b815481529060010190602001808311610bde57829003601f168201915b50505050508152602001600882018054610c149061255e565b80601f0160208091040260200160405190810160405280929190818152602001828054610c409061255e565b8015610c8d5780601f10610c6257610100808354040283529160200191610c8d565b820191906000526020600020905b815481529060010190602001808311610c7057829003601f168201915b5050505050815260200160098201548152602001600a82018054610cb09061255e565b80601f0160208091040260200160405190810160405280929190818152602001828054610cdc9061255e565b8015610d295780601f10610cfe57610100808354040283529160200191610d29565b820191906000526020600020905b815481529060010190602001808311610d0c57829003601f168201915b50505050508152602001600b82018054610d429061255e565b80601f0160208091040260200160405190810160405280929190818152602001828054610d6e9061255e565b8015610dbb5780601f10610d9057610100808354040283529160200191610dbb565b820191906000526020600020905b815481529060010190602001808311610d9e57829003601f168201915b50505050508152505090503373ffffffffffffffffffffffffffffffffffffffff16816000015173ffffffffffffffffffffffffffffffffffffffff1614610e38576040517f08c379a0000000000000000000000000000000000000000000000000000000008152600401610e2f9061277b565b60405180910390fd5b600073ffffffffffffffffffffffffffffffffffffffff168673ffffffffffffffffffffffffffffffffffffffff161415610ea8576040517f08c379a0000000000000000000000000000000000000000000000000000000008152600401610e9f9061280d565b60405180910390fd5b8573ffffffffffffffffffffffffffffffffffffffff1663a9059cbb82600001518361012001516040518363ffffffff1660e01b8152600401610eec92919061282d565b602060405180830381600087803b158015610f0657600080fd5b505af1158015610f1a573d6000803e3d6000fd5b505050506040513d601f19601f82011682018060405250810190610f3e919061286b565b610f7d576040517f08c379a0000000000000000000000000000000000000000000000000000000008152600401610f74906128e4565b60405180910390fd5b7f9eb9ef6bc25ab8bf0bc9a4907fa27dab76ea367b559d928306db5ac5b2656e3485826101200151604051610fb3929190612950565b60405180910390a150610ffc565b7f9eb9ef6bc25ab8bf0bc9a4907fa27dab76ea367b559d928306db5ac5b2656e34846000604051610ff3929190612a1d565b60405180910390a15b611004611a01565b5050505050565b60036020528060005260406000206000915054906101000a900460ff1681565b6110336119b1565b600060026000838152602001908152602001600020604051806101800160405290816000820160009054906101000a900473ffffffffffffffffffffffffffffffffffffffff1673ffffffffffffffffffffffffffffffffffffffff1673ffffffffffffffffffffffffffffffffffffffff168152602001600182015481526020016002820154815260200160038201548152602001600482015481526020016005820180546110e29061255e565b80601f016020809104026020016040519081016040528092919081815260200182805461110e9061255e565b801561115b5780601f106111305761010080835404028352916020019161115b565b820191906000526020600020905b81548152906001019060200180831161113e57829003601f168201915b505050505081526020016006820154815260200160078201805461117e9061255e565b80601f01602080910402602001604051908101604052809291908181526020018280546111aa9061255e565b80156111f75780601f106111cc576101008083540402835291602001916111f7565b820191906000526020600020905b8154815290600101906020018083116111da57829003601f168201915b505050505081526020016008820180546112109061255e565b80601f016020809104026020016040519081016040528092919081815260200182805461123c9061255e565b80156112895780601f1061125e57610100808354040283529160200191611289565b820191906000526020600020905b81548152906001019060200180831161126c57829003601f168201915b5050505050815260200160098201548152602001600a820180546112ac9061255e565b80601f01602080910402602001604051908101604052809291908181526020018280546112d89061255e565b80156113255780601f106112fa57610100808354040283529160200191611325565b820191906000526020600020905b81548152906001019060200180831161130857829003601f168201915b50505050508152602001600b8201805461133e9061255e565b80601f016020809104026020016040519081016040528092919081815260200182805461136a9061255e565b80156113b75780601f1061138c576101008083540402835291602001916113b7565b820191906000526020600020905b81548152906001019060200180831161139a57829003601f168201915b50505050508152505090503373ffffffffffffffffffffffffffffffffffffffff16816000015173ffffffffffffffffffffffffffffffffffffffff1614611434576040517f08c379a000000000000000000000000000000000000000000000000000000000815260040161142b9061277b565b60405180910390fd5b600073ffffffffffffffffffffffffffffffffffffffff168373ffffffffffffffffffffffffffffffffffffffff1614156114a4576040517f08c379a000000000000000000000000000000000000000000000000000000000815260040161149b9061280d565b60405180910390fd5b42816040015110156114eb576040517f08c379a00000000000000000000000000000000000000000000000000000000081526004016114e290612aa5565b60405180910390fd5b60036000838152602001908152602001600020600081819054906101000a900460ff168092919061151b90612ac5565b91906101000a81548160ff021916908360ff160217905550504260046000848152602001908152602001600020819055508273ffffffffffffffffffffffffffffffffffffffff1663a9059cbb308361012001516040518363ffffffff1660e01b815260040161158c92919061282d565b602060405180830381600087803b1580156115a657600080fd5b505af11580156115ba573d6000803e3d6000fd5b505050506040513d601f19601f820116820180604052508101906115de919061286b565b61161d576040517f08c379a0000000000000000000000000000000000000000000000000000000008152600401611614906128e4565b60405180910390fd5b50611626611a01565b5050565b60026020528060005260406000206000915090508060000160009054906101000a900473ffffffffffffffffffffffffffffffffffffffff169080600101549080600201549080600301549080600401549080600501805461168b9061255e565b80601f01602080910402602001604051908101604052809291908181526020018280546116b79061255e565b80156117045780601f106116d957610100808354040283529160200191611704565b820191906000526020600020905b8154815290600101906020018083116116e757829003601f168201915b50505050509080600601549080600701805461171f9061255e565b80601f016020809104026020016040519081016040528092919081815260200182805461174b9061255e565b80156117985780601f1061176d57610100808354040283529160200191611798565b820191906000526020600020905b81548152906001019060200180831161177b57829003601f168201915b5050505050908060080180546117ad9061255e565b80601f01602080910402602001604051908101604052809291908181526020018280546117d99061255e565b80156118265780601f106117fb57610100808354040283529160200191611826565b820191906000526020600020905b81548152906001019060200180831161180957829003601f168201915b50505050509080600901549080600a0180546118419061255e565b80601f016020809104026020016040519081016040528092919081815260200182805461186d9061255e565b80156118ba5780601f1061188f576101008083540402835291602001916118ba565b820191906000526020600020905b81548152906001019060200180831161189d57829003601f168201915b50505050509080600b0180546118cf9061255e565b80601f01602080910402602001604051908101604052809291908181526020018280546118fb9061255e565b80156119485780601f1061191d57610100808354040283529160200191611948565b820191906000526020600020905b81548152906001019060200180831161192b57829003601f168201915b505050505090508c565b60015481565b600060019050919050565b6005602052816000526040600020818154811061197f57600080fd5b90600052602060002001600091509150505481565b600060046000838152602001908152602001600020549050919050565b600260005414156119f7576040517f08c379a00000000000000000000000000000000000000000000000000000000081526004016119ee90612b3b565b60405180910390fd5b6002600081905550565b6001600081905550565b604051806101800160405280600073ffffffffffffffffffffffffffffffffffffffff16815260200160008152602001600081526020016000815260200160008152602001606081526020016000815260200160608152602001606081526020016000815260200160608152602001606081525090565b828054611a8e9061255e565b90600052602060002090601f016020900481019282611ab05760008555611af7565b82601f10611ac957805160ff1916838001178555611af7565b82800160010185558215611af7579182015b82811115611af6578251825591602001919060010190611adb565b5b509050611b049190611b08565b5090565b5b80821115611b21576000816000905550600101611b09565b5090565b6000604051905090565b600080fd5b600080fd5b6000819050919050565b611b4c81611b39565b8114611b5757600080fd5b50565b600081359050611b6981611b43565b92915050565b600060208284031215611b8557611b84611b2f565b5b6000611b9384828501611b5a565b91505092915050565b600073ffffffffffffffffffffffffffffffffffffffff82169050919050565b6000611bc782611b9c565b9050919050565b611bd781611bbc565b82525050565b611be681611b39565b82525050565b600081519050919050565b600082825260208201905092915050565b60005b83811015611c26578082015181840152602081019050611c0b565b83811115611c35576000848401525b50505050565b6000601f19601f8301169050919050565b6000611c5782611bec565b611c618185611bf7565b9350611c71818560208601611c08565b611c7a81611c3b565b840191505092915050565b600061018083016000830151611c9e6000860182611bce565b506020830151611cb16020860182611bdd565b506040830151611cc46040860182611bdd565b506060830151611cd76060860182611bdd565b506080830151611cea6080860182611bdd565b5060a083015184820360a0860152611d028282611c4c565b91505060c0830151611d1760c0860182611bdd565b5060e083015184820360e0860152611d2f8282611c4c565b915050610100830151848203610100860152611d4b8282611c4c565b915050610120830151611d62610120860182611bdd565b50610140830151848203610140860152611d7c8282611c4c565b915050610160830151848203610160860152611d988282611c4c565b9150508091505092915050565b60006020820190508181036000830152611dbf8184611c85565b905092915050565b600060ff82169050919050565b611ddd81611dc7565b82525050565b6000602082019050611df86000830184611dd4565b92915050565b600081519050919050565b600082825260208201905092915050565b6000819050602082019050919050565b6000611e368383611bdd565b60208301905092915050565b6000602082019050919050565b6000611e5a82611dfe565b611e648185611e09565b9350611e6f83611e1a565b8060005b83811015611ea0578151611e878882611e2a565b9750611e9283611e42565b925050600181019050611e73565b5085935050505092915050565b60006020820190508181036000830152611ec78184611e4f565b905092915050565b600080fd5b7f4e487b7100000000000000000000000000000000000000000000000000000000600052604160045260246000fd5b611f0c82611c3b565b810181811067ffffffffffffffff82111715611f2b57611f2a611ed4565b5b80604052505050565b6000611f3e611b25565b9050611f4a8282611f03565b919050565b600080fd5b611f5d81611bbc565b8114611f6857600080fd5b50565b600081359050611f7a81611f54565b92915050565b600080fd5b600080fd5b600067ffffffffffffffff821115611fa557611fa4611ed4565b5b611fae82611c3b565b9050602081019050919050565b82818337600083830152505050565b6000611fdd611fd884611f8a565b611f34565b905082815260208101848484011115611ff957611ff8611f85565b5b612004848285611fbb565b509392505050565b600082601f83011261202157612020611f80565b5b8135612031848260208601611fca565b91505092915050565b6000610180828403121561205157612050611ecf565b5b61205c610180611f34565b9050600061206c84828501611f6b565b600083015250602061208084828501611b5a565b602083015250604061209484828501611b5a565b60408301525060606120a884828501611b5a565b60608301525060806120bc84828501611b5a565b60808301525060a082013567ffffffffffffffff8111156120e0576120df611f4f565b5b6120ec8482850161200c565b60a08301525060c061210084828501611b5a565b60c08301525060e082013567ffffffffffffffff81111561212457612123611f4f565b5b6121308482850161200c565b60e08301525061010082013567ffffffffffffffff81111561215557612154611f4f565b5b6121618482850161200c565b6101008301525061012061217784828501611b5a565b6101208301525061014082013567ffffffffffffffff81111561219d5761219c611f4f565b5b6121a98482850161200c565b6101408301525061016082013567ffffffffffffffff8111156121cf576121ce611f4f565b5b6121db8482850161200c565b6101608301525092915050565b6000602082840312156121fe576121fd611b2f565b5b600082013567ffffffffffffffff81111561221c5761221b611b34565b5b6122288482850161203a565b91505092915050565b61223a81611b39565b82525050565b60006020820190506122556000830184612231565b92915050565b60008115159050919050565b6122708161225b565b811461227b57600080fd5b50565b60008135905061228d81612267565b92915050565b600080600080600060a086880312156122af576122ae611b2f565b5b60006122bd88828901611f6b565b95505060206122ce88828901611b5a565b945050604086013567ffffffffffffffff8111156122ef576122ee611b34565b5b6122fb8882890161200c565b935050606086013567ffffffffffffffff81111561231c5761231b611b34565b5b6123288882890161200c565b92505060806123398882890161227e565b9150509295509295909350565b6000806040838503121561235d5761235c611b2f565b5b600061236b85828601611f6b565b925050602061237c85828601611b5a565b9150509250929050565b61238f81611bbc565b82525050565b600082825260208201905092915050565b60006123b182611bec565b6123bb8185612395565b93506123cb818560208601611c08565b6123d481611c3b565b840191505092915050565b6000610180820190506123f5600083018f612386565b612402602083018e612231565b61240f604083018d612231565b61241c606083018c612231565b612429608083018b612231565b81810360a083015261243b818a6123a6565b905061244a60c0830189612231565b81810360e083015261245c81886123a6565b905081810361010083015261247181876123a6565b9050612481610120830186612231565b81810361014083015261249481856123a6565b90508181036101608301526124a981846123a6565b90509d9c50505050505050505050505050565b6000602082840312156124d2576124d1611b2f565b5b600082013567ffffffffffffffff8111156124f0576124ef611b34565b5b6124fc8482850161200c565b91505092915050565b61250e8161225b565b82525050565b60006020820190506125296000830184612505565b92915050565b7f4e487b7100000000000000000000000000000000000000000000000000000000600052602260045260246000fd5b6000600282049050600182168061257657607f821691505b6020821081141561258a5761258961252f565b5b50919050565b7f46616b6520416464726573730000000000000000000000000000000000000000600082015250565b60006125c6600c83612395565b91506125d182612590565b602082019050919050565b600060208201905081810360008301526125f5816125b9565b9050919050565b7f4e487b7100000000000000000000000000000000000000000000000000000000600052601160045260246000fd5b600061263682611b39565b91507fffffffffffffffffffffffffffffffffffffffffffffffffffffffffffffffff821415612669576126686125fc565b5b600182019050919050565b60006040820190506126896000830185612231565b6126966020830184612231565b9392505050565b7f596f752061726520636c61696d696e672061742077726f6e672074696d65737460008201527f616d700000000000000000000000000000000000000000000000000000000000602082015250565b60006126f9602383612395565b91506127048261269d565b604082019050919050565b60006020820190508181036000830152612728816126ec565b9050919050565b7f54686973206973206e6f7420796f757220496e737572616e6365000000000000600082015250565b6000612765601a83612395565b91506127708261272f565b602082019050919050565b6000602082019050818103600083015261279481612758565b9050919050565b7f796f752063616e277420646f20746869732077697468207a65726f206164647260008201527f6573730000000000000000000000000000000000000000000000000000000000602082015250565b60006127f7602383612395565b91506128028261279b565b604082019050919050565b60006020820190508181036000830152612826816127ea565b9050919050565b60006040820190506128426000830185612386565b61284f6020830184612231565b9392505050565b60008151905061286581612267565b92915050565b60006020828403121561288157612880611b2f565b5b600061288f84828501612856565b91505092915050565b7f556e61626c6520746f2074616e736665722046756e6400000000000000000000600082015250565b60006128ce601683612395565b91506128d982612898565b602082019050919050565b600060208201905081810360008301526128fd816128c1565b9050919050565b7f7375636365737300000000000000000000000000000000000000000000000000600082015250565b600061293a600783612395565b915061294582612904565b602082019050919050565b60006060820190506129656000830185612231565b81810360208301526129768161292d565b90506129856040830184612231565b9392505050565b7f756e737563636573730000000000000000000000000000000000000000000000600082015250565b60006129c2600983612395565b91506129cd8261298c565b602082019050919050565b6000819050919050565b6000819050919050565b6000612a07612a026129fd846129d8565b6129e2565b611b39565b9050919050565b612a17816129ec565b82525050565b6000606082019050612a326000830185612231565b8181036020830152612a43816129b5565b9050612a526040830184612a0e565b9392505050565b7f796f7572206d617475726974792044617465206973206f766572000000000000600082015250565b6000612a8f601a83612395565b9150612a9a82612a59565b602082019050919050565b60006020820190508181036000830152612abe81612a82565b9050919050565b6000612ad082611dc7565b915060ff821415612ae457612ae36125fc565b5b600182019050919050565b7f5265656e7472616e637947756172643a207265656e7472616e742063616c6c00600082015250565b6000612b25601f83612395565b9150612b3082612aef565b602082019050919050565b60006020820190508181036000830152612b5481612b18565b905091905056fea2646970667358221220974a784e797faede7b95a5899c7167ddd95e337683872bfad5ec89e63089629464736f6c63430008090033",
  "linkReferences": {},
  "deployedLinkReferences": {}
}