{
  "_format": "hh-sol-artifact-1",
  "contractName": "LibCalculations",
  "sourceName": "contracts/Libraries/LibCalculations.sol",
  "abi": [
    {
      "inputs": [
        {
          "internalType": "uint256",
          "name": "self",
          "type": "uint256"
        },
        {
          "internalType": "uint16",
          "name": "percentage",
          "type": "uint16"
        }
      ],
      "name": "percent",
      "outputs": [
        {
          "internalType": "uint256",
          "name": "",
          "type": "uint256"
        }
      ],
      "stateMutability": "pure",
      "type": "function"
    }
  ],
  "bytecode": "0x61044c610053600b82828239805160001a607314610046577f4e487b7100000000000000000000000000000000000000000000000000000000600052600060045260246000fd5b30600052607381538281f3fe73000000000000000000000000000000000000000030146080604052600436106100355760003560e01c80633fb340031461003a575b600080fd5b610054600480360381019061004f9190610145565b61006a565b6040516100619190610194565b60405180910390f35b600061007c838361ffff166002610084565b905092915050565b600061008f826100ae565b838561009b91906101de565b6100a59190610267565b90509392505050565b600081600a6100bd91906103cb565b60646100c991906101de565b9050919050565b600080fd5b6000819050919050565b6100e8816100d5565b81146100f357600080fd5b50565b600081359050610105816100df565b92915050565b600061ffff82169050919050565b6101228161010b565b811461012d57600080fd5b50565b60008135905061013f81610119565b92915050565b6000806040838503121561015c5761015b6100d0565b5b600061016a858286016100f6565b925050602061017b85828601610130565b9150509250929050565b61018e816100d5565b82525050565b60006020820190506101a96000830184610185565b92915050565b7f4e487b7100000000000000000000000000000000000000000000000000000000600052601160045260246000fd5b60006101e9826100d5565b91506101f4836100d5565b9250817fffffffffffffffffffffffffffffffffffffffffffffffffffffffffffffffff048311821515161561022d5761022c6101af565b5b828202905092915050565b7f4e487b7100000000000000000000000000000000000000000000000000000000600052601260045260246000fd5b6000610272826100d5565b915061027d836100d5565b92508261028d5761028c610238565b5b828204905092915050565b60008160011c9050919050565b6000808291508390505b60018511156102ef578086048111156102cb576102ca6101af565b5b60018516156102da5780820291505b80810290506102e885610298565b94506102af565b94509492505050565b60008261030857600190506103c4565b8161031657600090506103c4565b816001811461032c576002811461033657610365565b60019150506103c4565b60ff841115610348576103476101af565b5b8360020a91508482111561035f5761035e6101af565b5b506103c4565b5060208310610133831016604e8410600b841016171561039a5782820a905083811115610395576103946101af565b5b6103c4565b6103a784848460016102a5565b925090508184048111156103be576103bd6101af565b5b81810290505b9392505050565b60006103d6826100d5565b91506103e1836100d5565b925061040e7fffffffffffffffffffffffffffffffffffffffffffffffffffffffffffffffff84846102f8565b90509291505056fea2646970667358221220807dfb6d5cede898ebb083cea90565b7dcd6e23c955ac4353630d7e086124cf564736f6c63430008090033",
  "linkReferences": {},
  "deployedLinkReferences": {}
}